{
  "abi": [
    {
      "inputs": [
        {
          "internalType": "string",
          "name": "_name",
          "type": "string"
        },
        {
          "internalType": "string",
          "name": "_symbol",
          "type": "string"
        },
        {
          "internalType": "uint256",
          "name": "_totalSupply",
          "type": "uint256"
        }
      ],
      "stateMutability": "nonpayable",
      "type": "constructor"
    },
    {
      "anonymous": false,
      "inputs": [
        {
          "indexed": false,
          "internalType": "address",
          "name": "_from",
          "type": "address"
        },
        {
          "indexed": false,
          "internalType": "address",
          "name": "_spender",
          "type": "address"
        },
        {
          "indexed": false,
          "internalType": "uint256",
          "name": "_amount",
          "type": "uint256"
        }
      ],
      "name": "Approval",
      "type": "event"
    },
    {
      "anonymous": false,
      "inputs": [
        {
          "indexed": false,
          "internalType": "address",
          "name": "_from",
          "type": "address"
        },
        {
          "indexed": false,
          "internalType": "address",
          "name": "_to",
          "type": "address"
        },
        {
          "indexed": false,
          "internalType": "uint256",
          "name": "_amount",
          "type": "uint256"
        }
      ],
      "name": "Transfer",
      "type": "event"
    },
    {
      "anonymous": false,
      "inputs": [
        {
          "indexed": false,
          "internalType": "address",
          "name": "_from",
          "type": "address"
        },
        {
          "indexed": false,
          "internalType": "uint256",
          "name": "_amount",
          "type": "uint256"
        }
      ],
      "name": "tokenBurned",
      "type": "event"
    },
    {
      "anonymous": false,
      "inputs": [
        {
          "indexed": false,
          "internalType": "address",
          "name": "_to",
          "type": "address"
        },
        {
          "indexed": false,
          "internalType": "uint256",
          "name": "_amount",
          "type": "uint256"
        }
      ],
      "name": "tokenMinted",
      "type": "event"
    },
    {
      "inputs": [
        {
          "internalType": "address",
          "name": "_owner",
          "type": "address"
        },
        {
          "internalType": "address",
          "name": "_spender",
          "type": "address"
        }
      ],
      "name": "allowance",
      "outputs": [
        {
          "internalType": "uint256",
          "name": "",
          "type": "uint256"
        }
      ],
      "stateMutability": "view",
      "type": "function"
    },
    {
      "inputs": [
        {
          "internalType": "address",
          "name": "_spender",
          "type": "address"
        },
        {
          "internalType": "uint256",
          "name": "_oldAmount",
          "type": "uint256"
        },
        {
          "internalType": "uint256",
          "name": "_amount",
          "type": "uint256"
        }
      ],
      "name": "approve",
      "outputs": [
        {
          "internalType": "bool",
          "name": "",
          "type": "bool"
        }
      ],
      "stateMutability": "nonpayable",
      "type": "function"
    },
    {
      "inputs": [
        {
          "internalType": "address",
          "name": "_user",
          "type": "address"
        }
      ],
      "name": "balanceOf",
      "outputs": [
        {
          "internalType": "uint256",
          "name": "",
          "type": "uint256"
        }
      ],
      "stateMutability": "view",
      "type": "function"
    },
    {
      "inputs": [
        {
          "internalType": "uint256",
          "name": "_amount",
          "type": "uint256"
        }
      ],
      "name": "burnToken",
      "outputs": [],
      "stateMutability": "nonpayable",
      "type": "function"
    },
    {
      "inputs": [],
      "name": "getName",
      "outputs": [
        {
          "internalType": "string",
          "name": "",
          "type": "string"
        }
      ],
      "stateMutability": "view",
      "type": "function"
    },
    {
      "inputs": [],
      "name": "getOwner",
      "outputs": [
        {
          "internalType": "address",
          "name": "",
          "type": "address"
        }
      ],
      "stateMutability": "view",
      "type": "function"
    },
    {
      "inputs": [],
      "name": "getSymbol",
      "outputs": [
        {
          "internalType": "string",
          "name": "",
          "type": "string"
        }
      ],
      "stateMutability": "view",
      "type": "function"
    },
    {
      "inputs": [
        {
          "internalType": "address",
          "name": "_to",
          "type": "address"
        },
        {
          "internalType": "uint256",
          "name": "_amount",
          "type": "uint256"
        }
      ],
      "name": "mintToken",
      "outputs": [],
      "stateMutability": "nonpayable",
      "type": "function"
    },
    {
      "inputs": [],
      "name": "totalSupply",
      "outputs": [
        {
          "internalType": "uint256",
          "name": "",
          "type": "uint256"
        }
      ],
      "stateMutability": "view",
      "type": "function"
    },
    {
      "inputs": [
        {
          "internalType": "address",
          "name": "_to",
          "type": "address"
        },
        {
          "internalType": "uint256",
          "name": "_amount",
          "type": "uint256"
        }
      ],
      "name": "transfer",
      "outputs": [
        {
          "internalType": "bool",
          "name": "",
          "type": "bool"
        }
      ],
      "stateMutability": "nonpayable",
      "type": "function"
    },
    {
      "inputs": [
        {
          "internalType": "address",
          "name": "_from",
          "type": "address"
        },
        {
          "internalType": "address",
          "name": "_to",
          "type": "address"
        },
        {
          "internalType": "uint256",
          "name": "_amount",
          "type": "uint256"
        }
      ],
      "name": "transferFrom",
      "outputs": [
        {
          "internalType": "bool",
          "name": "",
          "type": "bool"
        }
      ],
      "stateMutability": "nonpayable",
      "type": "function"
    }
  ],
  "bytecode": {
    "object": "0x60a060405260006003553480156200001657600080fd5b5060405162000f5a38038062000f5a83398101604081905262000039916200013a565b60016200004784826200023c565b5060026200005683826200023c565b50600080546001600160a01b0319163317905560805250620003089050565b634e487b7160e01b600052604160045260246000fd5b600082601f8301126200009d57600080fd5b81516001600160401b0380821115620000ba57620000ba62000075565b604051601f8301601f19908116603f01168101908282118183101715620000e557620000e562000075565b816040528381526020925086838588010111156200010257600080fd5b600091505b8382101562000126578582018301518183018401529082019062000107565b600093810190920192909252949350505050565b6000806000606084860312156200015057600080fd5b83516001600160401b03808211156200016857600080fd5b62000176878388016200008b565b945060208601519150808211156200018d57600080fd5b506200019c868287016200008b565b925050604084015190509250925092565b600181811c90821680620001c257607f821691505b602082108103620001e357634e487b7160e01b600052602260045260246000fd5b50919050565b601f8211156200023757600081815260208120601f850160051c81016020861015620002125750805b601f850160051c820191505b8181101562000233578281556001016200021e565b5050505b505050565b81516001600160401b0381111562000258576200025862000075565b6200027081620002698454620001ad565b84620001e9565b602080601f831160018114620002a857600084156200028f5750858301515b600019600386901b1c1916600185901b17855562000233565b600085815260208120601f198616915b82811015620002d957888601518255948401946001909101908401620002b8565b5085821015620002f85787850151600019600388901b60f8161c191681555b5050505050600190811b01905550565b608051610c306200032a6000396000818160d601526106bc0152610c306000f3fe608060405234801561001057600080fd5b50600436106100a95760003560e01c806370a082311161007157806370a082311461013a57806379c650681461014d5780637b47ec1a14610162578063893d20e814610175578063a9059cbb14610190578063dd62ed3e146101a357600080fd5b806315070401146100ae57806317d7de7c146100cc57806318160ddd146100d457806323b872dd14610104578063426a849314610127575b600080fd5b6100b66101b6565b6040516100c391906109a2565b60405180910390f35b6100b6610248565b7f00000000000000000000000000000000000000000000000000000000000000005b6040519081526020016100c3565b610117610112366004610a0c565b610257565b60405190151581526020016100c3565b610117610135366004610a48565b61043f565b6100f6610148366004610a7b565b610585565b61016061015b366004610a9d565b61060a565b005b610160610170366004610ac7565b6107cc565b6000546040516001600160a01b0390911681526020016100c3565b61011761019e366004610a9d565b610876565b6100f66101b1366004610ae0565b610975565b6060600280546101c590610b13565b80601f01602080910402602001604051908101604052809291908181526020018280546101f190610b13565b801561023e5780601f106102135761010080835404028352916020019161023e565b820191906000526020600020905b81548152906001019060200180831161022157829003601f168201915b5050505050905090565b6060600180546101c590610b13565b6001600160a01b0383166000908152600460205260408120548490839081111561029c5760405162461bcd60e51b815260040161029390610b4d565b60405180910390fd5b6001600160a01b0386166103005760405162461bcd60e51b815260206004820152602560248201527f45524332303a207472616e736665722066726f6d20746865207a65726f206164604482015264647265737360d81b6064820152608401610293565b6001600160a01b0385166103265760405162461bcd60e51b815260040161029390610b7b565b6001600160a01b038616600090815260056020908152604080832033845290915290205484111561035657600080fd5b6001600160a01b038616600090815260056020908152604080832033845290915281208054869290610389908490610bd4565b90915550506001600160a01b038616600090815260046020526040812080548692906103b6908490610bd4565b90915550506001600160a01b038516600090815260046020526040812080548692906103e3908490610be7565b9091555050604080516001600160a01b038089168252871660208201529081018590527fddf252ad1be2c89b69c2b068fc378daa952ba7f163c4a11628f55a4df523b3ef9060600160405180910390a150600195945050505050565b60006001600160a01b0384166104a25760405162461bcd60e51b815260206004820152602260248201527f45524332303a20617070726f766520746f20746865207a65726f206164647265604482015261737360f01b6064820152608401610293565b3360009081526005602090815260408083206001600160a01b038816845290915290205483146105145760405162461bcd60e51b815260206004820152601960248201527f417070726f76616c20686173206265656e206368616e676564000000000000006044820152606401610293565b3360008181526005602090815260408083206001600160a01b0389168085529083529281902086905580519384529083019190915281018390527f8c5be1e5ebec7d5bd14f71427d1e84f3dd0314c0f7b2291e5b200ac8c7c3b9259060600160405180910390a15060019392505050565b60006001600160a01b0382166105ee5760405162461bcd60e51b815260206004820152602860248201527f45524332303a2061646472657373207a65726f206973206e6f7420612076616c60448201526734b21037bbb732b960c11b6064820152608401610293565b506001600160a01b031660009081526004602052604090205490565b6000546001600160a01b031633146106645760405162461bcd60e51b815260206004820152601a60248201527f4f6e6c79206f776e65722063616e2063616c6c206d6574686f640000000000006044820152606401610293565b6001600160a01b0382166106ba5760405162461bcd60e51b815260206004820152601f60248201527f45524332303a206d696e7420746f20746865207a65726f2061646472657373006044820152606401610293565b7f0000000000000000000000000000000000000000000000000000000000000000816003546106e99190610be7565b11156107425760405162461bcd60e51b815260206004820152602260248201527f43616e6e6f74206d696e74206d6f7265207468616e20746f74616c20737570706044820152616c7960f01b6064820152608401610293565b80600360008282546107549190610be7565b90915550506001600160a01b03821660009081526004602052604081208054839290610781908490610be7565b9091555050604080516001600160a01b0384168152602081018390527f2d8eb9b9558d4b5ef1d238622692f6156d5822009340e26ab15fac05d64c12f0910160405180910390a15050565b3360008181526004602052604090205482908111156107fd5760405162461bcd60e51b815260040161029390610b4d565b826003600082825461080f9190610bd4565b90915550503360009081526004602052604081208054859290610833908490610bd4565b909155505060408051338152602081018590527ff20884684d39657969fc7e0adb7b6d57e2c376184e1463a57c1f86e5dd7a4392910160405180910390a1505050565b3360008181526004602052604081205490919083908111156108aa5760405162461bcd60e51b815260040161029390610b4d565b6001600160a01b0385166108d05760405162461bcd60e51b815260040161029390610b7b565b33600090815260046020526040812080548692906108ef908490610bd4565b90915550506001600160a01b0385166000908152600460205260408120805486929061091c908490610be7565b9091555050604080513381526001600160a01b03871660208201529081018590527fddf252ad1be2c89b69c2b068fc378daa952ba7f163c4a11628f55a4df523b3ef9060600160405180910390a1506001949350505050565b6001600160a01b038083166000908152600560209081526040808320938516835292905220545b92915050565b600060208083528351808285015260005b818110156109cf578581018301518582016040015282016109b3565b506000604082860101526040601f19601f8301168501019250505092915050565b80356001600160a01b0381168114610a0757600080fd5b919050565b600080600060608486031215610a2157600080fd5b610a2a846109f0565b9250610a38602085016109f0565b9150604084013590509250925092565b600080600060608486031215610a5d57600080fd5b610a66846109f0565b95602085013595506040909401359392505050565b600060208284031215610a8d57600080fd5b610a96826109f0565b9392505050565b60008060408385031215610ab057600080fd5b610ab9836109f0565b946020939093013593505050565b600060208284031215610ad957600080fd5b5035919050565b60008060408385031215610af357600080fd5b610afc836109f0565b9150610b0a602084016109f0565b90509250929050565b600181811c90821680610b2757607f821691505b602082108103610b4757634e487b7160e01b600052602260045260246000fd5b50919050565b602080825260149082015273496e73756666696369656e742062616c616e636560601b604082015260600190565b60208082526023908201527f45524332303a207472616e7366657220746f20746865207a65726f206164647260408201526265737360e81b606082015260800190565b634e487b7160e01b600052601160045260246000fd5b8181038181111561099c5761099c610bbe565b8082018082111561099c5761099c610bbe56fea2646970667358221220d2c7cbe24efba7be4c870172e98fddba815ca284a8a7d1baaf43c5906387489b64736f6c63430008100033",
    "linkReferences": {}
  },
  "methodIdentifiers": {
    "allowance(address,address)": "dd62ed3e",
    "approve(address,uint256,uint256)": "426a8493",
    "balanceOf(address)": "70a08231",
    "burnToken(uint256)": "7b47ec1a",
    "getName()": "17d7de7c",
    "getOwner()": "893d20e8",
    "getSymbol()": "15070401",
    "mintToken(address,uint256)": "79c65068",
    "totalSupply()": "18160ddd",
    "transfer(address,uint256)": "a9059cbb",
    "transferFrom(address,address,uint256)": "23b872dd"
  },
  "id": 7
}