{
  "abi": [
    {
      "inputs": [
        {
          "internalType": "string",
          "name": "_name",
          "type": "string"
        },
        {
          "internalType": "string",
          "name": "_symbol",
          "type": "string"
        },
        {
          "internalType": "uint256",
          "name": "_totalSupply",
          "type": "uint256"
        }
      ],
      "stateMutability": "nonpayable",
      "type": "constructor"
    },
    {
      "anonymous": false,
      "inputs": [
        {
          "indexed": false,
          "internalType": "address",
          "name": "_from",
          "type": "address"
        },
        {
          "indexed": false,
          "internalType": "address",
          "name": "_to",
          "type": "address"
        },
        {
          "indexed": false,
          "internalType": "uint256",
          "name": "_tokenId",
          "type": "uint256"
        }
      ],
      "name": "Approval",
      "type": "event"
    },
    {
      "anonymous": false,
      "inputs": [
        {
          "indexed": false,
          "internalType": "address",
          "name": "_from",
          "type": "address"
        },
        {
          "indexed": false,
          "internalType": "address",
          "name": "_to",
          "type": "address"
        },
        {
          "indexed": false,
          "internalType": "uint256",
          "name": "_tokenId",
          "type": "uint256"
        }
      ],
      "name": "Transfer",
      "type": "event"
    },
    {
      "anonymous": false,
      "inputs": [
        {
          "indexed": false,
          "internalType": "address",
          "name": "_from",
          "type": "address"
        },
        {
          "indexed": false,
          "internalType": "uint256",
          "name": "_tokenId",
          "type": "uint256"
        }
      ],
      "name": "tokenBurned",
      "type": "event"
    },
    {
      "anonymous": false,
      "inputs": [
        {
          "indexed": false,
          "internalType": "address",
          "name": "_to",
          "type": "address"
        },
        {
          "indexed": false,
          "internalType": "uint256",
          "name": "_tokenId",
          "type": "uint256"
        }
      ],
      "name": "tokenMinted",
      "type": "event"
    },
    {
      "inputs": [
        {
          "internalType": "uint256",
          "name": "_tokenId",
          "type": "uint256"
        },
        {
          "internalType": "address",
          "name": "_to",
          "type": "address"
        }
      ],
      "name": "approve",
      "outputs": [],
      "stateMutability": "nonpayable",
      "type": "function"
    },
    {
      "inputs": [
        {
          "internalType": "address",
          "name": "_user",
          "type": "address"
        }
      ],
      "name": "balanceOf",
      "outputs": [
        {
          "internalType": "uint256",
          "name": "",
          "type": "uint256"
        }
      ],
      "stateMutability": "view",
      "type": "function"
    },
    {
      "inputs": [
        {
          "internalType": "uint256",
          "name": "_tokenId",
          "type": "uint256"
        }
      ],
      "name": "burnToken",
      "outputs": [],
      "stateMutability": "nonpayable",
      "type": "function"
    },
    {
      "inputs": [
        {
          "internalType": "uint256",
          "name": "_tokenId",
          "type": "uint256"
        }
      ],
      "name": "getApproval",
      "outputs": [
        {
          "internalType": "address",
          "name": "",
          "type": "address"
        }
      ],
      "stateMutability": "view",
      "type": "function"
    },
    {
      "inputs": [],
      "name": "getName",
      "outputs": [
        {
          "internalType": "string",
          "name": "",
          "type": "string"
        }
      ],
      "stateMutability": "view",
      "type": "function"
    },
    {
      "inputs": [],
      "name": "getOwner",
      "outputs": [
        {
          "internalType": "address",
          "name": "",
          "type": "address"
        }
      ],
      "stateMutability": "view",
      "type": "function"
    },
    {
      "inputs": [],
      "name": "getSymbol",
      "outputs": [
        {
          "internalType": "string",
          "name": "",
          "type": "string"
        }
      ],
      "stateMutability": "view",
      "type": "function"
    },
    {
      "inputs": [
        {
          "internalType": "uint256",
          "name": "_tokenId",
          "type": "uint256"
        }
      ],
      "name": "holderOf",
      "outputs": [
        {
          "internalType": "address",
          "name": "",
          "type": "address"
        }
      ],
      "stateMutability": "view",
      "type": "function"
    },
    {
      "inputs": [
        {
          "internalType": "address",
          "name": "_to",
          "type": "address"
        },
        {
          "internalType": "uint256",
          "name": "_amount",
          "type": "uint256"
        }
      ],
      "name": "mintToken",
      "outputs": [],
      "stateMutability": "nonpayable",
      "type": "function"
    },
    {
      "inputs": [],
      "name": "supply",
      "outputs": [
        {
          "internalType": "uint256",
          "name": "",
          "type": "uint256"
        }
      ],
      "stateMutability": "view",
      "type": "function"
    },
    {
      "inputs": [
        {
          "internalType": "uint256",
          "name": "_tokenId",
          "type": "uint256"
        }
      ],
      "name": "tokenURI",
      "outputs": [
        {
          "internalType": "string",
          "name": "",
          "type": "string"
        }
      ],
      "stateMutability": "view",
      "type": "function"
    },
    {
      "inputs": [],
      "name": "totalSupply",
      "outputs": [
        {
          "internalType": "uint256",
          "name": "",
          "type": "uint256"
        }
      ],
      "stateMutability": "view",
      "type": "function"
    },
    {
      "inputs": [
        {
          "internalType": "uint256",
          "name": "_tokenId",
          "type": "uint256"
        },
        {
          "internalType": "address",
          "name": "_to",
          "type": "address"
        }
      ],
      "name": "transfer",
      "outputs": [
        {
          "internalType": "bool",
          "name": "",
          "type": "bool"
        }
      ],
      "stateMutability": "nonpayable",
      "type": "function"
    },
    {
      "inputs": [
        {
          "internalType": "address",
          "name": "_from",
          "type": "address"
        },
        {
          "internalType": "address",
          "name": "_to",
          "type": "address"
        },
        {
          "internalType": "uint256",
          "name": "_tokenId",
          "type": "uint256"
        }
      ],
      "name": "transferFrom",
      "outputs": [
        {
          "internalType": "bool",
          "name": "",
          "type": "bool"
        }
      ],
      "stateMutability": "nonpayable",
      "type": "function"
    }
  ],
  "bytecode": {
    "object": "0x60a06040523480156200001157600080fd5b506040516200118e3803806200118e833981016040819052620000349162000135565b600162000042848262000237565b50600262000051838262000237565b50600080546001600160a01b0319163317905560805250620003039050565b634e487b7160e01b600052604160045260246000fd5b600082601f8301126200009857600080fd5b81516001600160401b0380821115620000b557620000b562000070565b604051601f8301601f19908116603f01168101908282118183101715620000e057620000e062000070565b81604052838152602092508683858801011115620000fd57600080fd5b600091505b8382101562000121578582018301518183018401529082019062000102565b600093810190920192909252949350505050565b6000806000606084860312156200014b57600080fd5b83516001600160401b03808211156200016357600080fd5b620001718783880162000086565b945060208601519150808211156200018857600080fd5b50620001978682870162000086565b925050604084015190509250925092565b600181811c90821680620001bd57607f821691505b602082108103620001de57634e487b7160e01b600052602260045260246000fd5b50919050565b601f8211156200023257600081815260208120601f850160051c810160208610156200020d5750805b601f850160051c820191505b818110156200022e5782815560010162000219565b5050505b505050565b81516001600160401b0381111562000253576200025362000070565b6200026b81620002648454620001a8565b84620001e4565b602080601f831160018114620002a357600084156200028a5750858301515b600019600386901b1c1916600185901b1785556200022e565b600085815260208120601f198616915b82811015620002d457888601518255948401946001909101908401620002b3565b5085821015620002f35787850151600019600388901b60f8161c191681555b5050505050600190811b01905550565b608051610e68620003266000396000818161012501526104e20152610e686000f3fe608060405234801561001057600080fd5b50600436106100ea5760003560e01c80637b47ec1a1161008c578063c87b56dd11610066578063c87b56dd146101df578063dbacc237146101f2578063f658518a14610205578063febe49091461022e57600080fd5b80637b47ec1a14610194578063893d20e8146101a7578063b7760c8f146101cc57600080fd5b806318160ddd116100c857806318160ddd1461012357806323b872dd1461014957806370a082311461016c57806379c650681461017f57600080fd5b8063047fc9aa146100ef578063150704011461010657806317d7de7c1461011b575b600080fd5b6003545b6040519081526020015b60405180910390f35b61010e610241565b6040516100fd9190610c53565b61010e6102d3565b7f00000000000000000000000000000000000000000000000000000000000000006100f3565b61015c610157366004610ca2565b6102e2565b60405190151581526020016100fd565b6100f361017a366004610cde565b61035a565b61019261018d366004610d00565b6103e0565b005b6101926101a2366004610d2a565b61060f565b6000546001600160a01b03165b6040516001600160a01b0390911681526020016100fd565b61015c6101da366004610d43565b610726565b61010e6101ed366004610d2a565b6107a3565b6101b4610200366004610d2a565b6108a3565b6101b4610213366004610d2a565b6000908152600760205260409020546001600160a01b031690565b61019261023c366004610d43565b610909565b60606002805461025090610d6f565b80601f016020809104026020016040519081016040528092919081815260200182805461027c90610d6f565b80156102c95780601f1061029e576101008083540402835291602001916102c9565b820191906000526020600020905b8154815290600101906020018083116102ac57829003601f168201915b5050505050905090565b60606001805461025090610d6f565b60008181526007602052604081205482906001600160a01b031633148061031f57506000818152600660205260409020546001600160a01b031633145b6103445760405162461bcd60e51b815260040161033b90610da9565b60405180910390fd5b61034f8585856109e8565b506001949350505050565b60006001600160a01b0382166103c45760405162461bcd60e51b815260206004820152602960248201527f4552433732313a2061646472657373207a65726f206973206e6f7420612076616044820152683634b21037bbb732b960b91b606482015260840161033b565b506001600160a01b031660009081526005602052604090205490565b6000546001600160a01b0316331461043a5760405162461bcd60e51b815260206004820152601a60248201527f4f6e6c79206f776e65722063616e2063616c6c206d6574686f64000000000000604482015260640161033b565b6000811161048a5760405162461bcd60e51b815260206004820152601860248201527f4d757374206d696e74206174206c656173742031204e46540000000000000000604482015260640161033b565b6001600160a01b0382166104e05760405162461bcd60e51b815260206004820181905260248201527f4552433732313a206d696e7420746f20746865207a65726f2061646472657373604482015260640161033b565b7f00000000000000000000000000000000000000000000000000000000000000008161050b60045490565b6105159190610e06565b111561056e5760405162461bcd60e51b815260206004820152602260248201527f43616e6e6f74206d696e74206d6f7265207468616e20746f74616c20737570706044820152616c7960f01b606482015260840161033b565b80600360008282546105809190610e06565b90915550600090505b81811161060a5761059e600480546001019055565b60006105a960045490565b90506105b58482610b1b565b604080516001600160a01b0386168152602081018390527f2d8eb9b9558d4b5ef1d238622692f6156d5822009340e26ab15fac05d64c12f0910160405180910390a1508061060281610e19565b915050610589565b505050565b60008181526007602052604090205481906001600160a01b031633148061064c57506000818152600660205260409020546001600160a01b031633145b6106685760405162461bcd60e51b815260040161033b90610da9565b600082815260066020908152604080832080546001600160a01b03198116909155600380546000199081019091556001600160a01b03909116808552600584528285208054909201909155858452600990925290912080546106c990610d6f565b1590506106e75760008381526009602052604081206106e791610bd9565b60408051338152602081018590527ff20884684d39657969fc7e0adb7b6d57e2c376184e1463a57c1f86e5dd7a439291015b60405180910390a1505050565b60008281526006602052604081205483906001600160a01b0316331461078e5760405162461bcd60e51b815260206004820152601b60248201527f4f6e6c7920686f6c6465722063616e2063616c6c206d6574686f640000000000604482015260640161033b565b6107993384866109e8565b5060019392505050565b60606107ae82610bbc565b6107f55760405162461bcd60e51b8152602060048201526018602482015277115490cdcc8c4e881a5b9d985b1a59081d1bdad95b881a5960421b604482015260640161033b565b6000828152600960205260408120805461080e90610d6f565b80601f016020809104026020016040519081016040528092919081815260200182805461083a90610d6f565b80156108875780601f1061085c57610100808354040283529160200191610887565b820191906000526020600020905b81548152906001019060200180831161086a57829003601f168201915b5050604080516020810190915260009052509195945050505050565b6000818152600660205260408120546001600160a01b0316806109035760405162461bcd60e51b8152602060048201526018602482015277115490cdcc8c4e881a5b9d985b1a59081d1bdad95b881a5960421b604482015260640161033b565b92915050565b60008281526006602052604090205482906001600160a01b031633146109715760405162461bcd60e51b815260206004820152601b60248201527f4f6e6c7920686f6c6465722063616e2063616c6c206d6574686f640000000000604482015260640161033b565b600083815260076020526040902080546001600160a01b0319166001600160a01b0384161790557f8c5be1e5ebec7d5bd14f71427d1e84f3dd0314c0f7b2291e5b200ac8c7c3b9256109c2846108a3565b604080516001600160a01b03928316815291851660208301528101859052606001610719565b6000818152600660205260409020546001600160a01b03848116911614610a5f5760405162461bcd60e51b815260206004820152602560248201527f4552433732313a207472616e736665722066726f6d20696e636f72726563742060448201526437bbb732b960d91b606482015260840161033b565b6001600160a01b038216610ab55760405162461bcd60e51b815260206004820152601860248201527f4552433732313a20696e76616c69642072656365697665720000000000000000604482015260640161033b565b600081815260076020908152604080832080546001600160a01b03199081169091556001600160a01b0396871684526005835281842080546000190190559490951680835285832080546001019055928252600690529290922080549091169091179055565b6001600160a01b038216610b7b5760405162461bcd60e51b815260206004820152602160248201527f4552433732313a206d696e7420746f20746865207a65726f20616464726573736044820152602160f81b606482015260840161033b565b6001600160a01b03909116600081815260056020908152604080832080546001019055938252600690529190912080546001600160a01b0319169091179055565b600080610bc8836108a3565b6001600160a01b0316141592915050565b508054610be590610d6f565b6000825580601f10610bf5575050565b601f016020900490600052602060002090810190610c139190610c16565b50565b5b80821115610c2b5760008155600101610c17565b5090565b60005b83811015610c4a578181015183820152602001610c32565b50506000910152565b6020815260008251806020840152610c72816040850160208701610c2f565b601f01601f19169190910160400192915050565b80356001600160a01b0381168114610c9d57600080fd5b919050565b600080600060608486031215610cb757600080fd5b610cc084610c86565b9250610cce60208501610c86565b9150604084013590509250925092565b600060208284031215610cf057600080fd5b610cf982610c86565b9392505050565b60008060408385031215610d1357600080fd5b610d1c83610c86565b946020939093013593505050565b600060208284031215610d3c57600080fd5b5035919050565b60008060408385031215610d5657600080fd5b82359150610d6660208401610c86565b90509250929050565b600181811c90821680610d8357607f821691505b602082108103610da357634e487b7160e01b600052602260045260246000fd5b50919050565b60208082526027908201527f4f6e6c7920686f6c646572206f7220617070726f7665642063616e2063616c6c604082015266081b595d1a1bd960ca1b606082015260800190565b634e487b7160e01b600052601160045260246000fd5b8082018082111561090357610903610df0565b600060018201610e2b57610e2b610df0565b506001019056fea26469706673582212203d77ce32e20e8119ce08e4d753c6c07d478209caa582a114679d0a941d7592c464736f6c63430008100033",
    "linkReferences": {}
  },
  "methodIdentifiers": {
    "approve(uint256,address)": "febe4909",
    "balanceOf(address)": "70a08231",
    "burnToken(uint256)": "7b47ec1a",
    "getApproval(uint256)": "f658518a",
    "getName()": "17d7de7c",
    "getOwner()": "893d20e8",
    "getSymbol()": "15070401",
    "holderOf(uint256)": "dbacc237",
    "mintToken(address,uint256)": "79c65068",
    "supply()": "047fc9aa",
    "tokenURI(uint256)": "c87b56dd",
    "totalSupply()": "18160ddd",
    "transfer(uint256,address)": "b7760c8f",
    "transferFrom(address,address,uint256)": "23b872dd"
  },
  "id": 24
}