{
  "abi": [
    {
      "inputs": [
        {
          "internalType": "string",
          "name": "_name",
          "type": "string"
        },
        {
          "internalType": "string",
          "name": "_symbol",
          "type": "string"
        },
        {
          "internalType": "uint256",
          "name": "_totalSupply",
          "type": "uint256"
        }
      ],
      "stateMutability": "nonpayable",
      "type": "constructor"
    },
    {
      "anonymous": false,
      "inputs": [
        {
          "indexed": false,
          "internalType": "address",
          "name": "_from",
          "type": "address"
        },
        {
          "indexed": false,
          "internalType": "address",
          "name": "_to",
          "type": "address"
        },
        {
          "indexed": false,
          "internalType": "uint256",
          "name": "_tokenId",
          "type": "uint256"
        }
      ],
      "name": "Approval",
      "type": "event"
    },
    {
      "anonymous": false,
      "inputs": [
        {
          "indexed": false,
          "internalType": "address",
          "name": "_from",
          "type": "address"
        },
        {
          "indexed": false,
          "internalType": "address",
          "name": "_to",
          "type": "address"
        },
        {
          "indexed": false,
          "internalType": "uint256",
          "name": "_tokenId",
          "type": "uint256"
        }
      ],
      "name": "Transfer",
      "type": "event"
    },
    {
      "anonymous": false,
      "inputs": [
        {
          "indexed": false,
          "internalType": "address",
          "name": "_from",
          "type": "address"
        },
        {
          "indexed": false,
          "internalType": "uint256",
          "name": "_tokenId",
          "type": "uint256"
        }
      ],
      "name": "tokenBurned",
      "type": "event"
    },
    {
      "anonymous": false,
      "inputs": [
        {
          "indexed": false,
          "internalType": "address",
          "name": "_to",
          "type": "address"
        },
        {
          "indexed": false,
          "internalType": "uint256",
          "name": "_tokenId",
          "type": "uint256"
        }
      ],
      "name": "tokenMinted",
      "type": "event"
    },
    {
      "inputs": [
        {
          "internalType": "uint256",
          "name": "_tokenId",
          "type": "uint256"
        },
        {
          "internalType": "address",
          "name": "_to",
          "type": "address"
        }
      ],
      "name": "approve",
      "outputs": [],
      "stateMutability": "nonpayable",
      "type": "function"
    },
    {
      "inputs": [
        {
          "internalType": "address",
          "name": "_user",
          "type": "address"
        }
      ],
      "name": "balanceOf",
      "outputs": [
        {
          "internalType": "uint256",
          "name": "",
          "type": "uint256"
        }
      ],
      "stateMutability": "view",
      "type": "function"
    },
    {
      "inputs": [
        {
          "internalType": "uint256",
          "name": "_tokenId",
          "type": "uint256"
        }
      ],
      "name": "burnToken",
      "outputs": [],
      "stateMutability": "nonpayable",
      "type": "function"
    },
    {
      "inputs": [
        {
          "internalType": "uint256",
          "name": "_tokenId",
          "type": "uint256"
        }
      ],
      "name": "getApproval",
      "outputs": [
        {
          "internalType": "address",
          "name": "",
          "type": "address"
        }
      ],
      "stateMutability": "view",
      "type": "function"
    },
    {
      "inputs": [],
      "name": "getName",
      "outputs": [
        {
          "internalType": "string",
          "name": "",
          "type": "string"
        }
      ],
      "stateMutability": "view",
      "type": "function"
    },
    {
      "inputs": [],
      "name": "getOwner",
      "outputs": [
        {
          "internalType": "address",
          "name": "",
          "type": "address"
        }
      ],
      "stateMutability": "view",
      "type": "function"
    },
    {
      "inputs": [],
      "name": "getSymbol",
      "outputs": [
        {
          "internalType": "string",
          "name": "",
          "type": "string"
        }
      ],
      "stateMutability": "view",
      "type": "function"
    },
    {
      "inputs": [
        {
          "internalType": "uint256",
          "name": "_tokenId",
          "type": "uint256"
        }
      ],
      "name": "holderOf",
      "outputs": [
        {
          "internalType": "address",
          "name": "",
          "type": "address"
        }
      ],
      "stateMutability": "view",
      "type": "function"
    },
    {
      "inputs": [
        {
          "internalType": "address",
          "name": "_to",
          "type": "address"
        },
        {
          "internalType": "uint256",
          "name": "_amount",
          "type": "uint256"
        }
      ],
      "name": "mintToken",
      "outputs": [],
      "stateMutability": "nonpayable",
      "type": "function"
    },
    {
      "inputs": [],
      "name": "supply",
      "outputs": [
        {
          "internalType": "uint256",
          "name": "",
          "type": "uint256"
        }
      ],
      "stateMutability": "view",
      "type": "function"
    },
    {
      "inputs": [
        {
          "internalType": "uint256",
          "name": "_tokenId",
          "type": "uint256"
        }
      ],
      "name": "tokenURI",
      "outputs": [
        {
          "internalType": "string",
          "name": "",
          "type": "string"
        }
      ],
      "stateMutability": "view",
      "type": "function"
    },
    {
      "inputs": [],
      "name": "totalSupply",
      "outputs": [
        {
          "internalType": "uint256",
          "name": "",
          "type": "uint256"
        }
      ],
      "stateMutability": "view",
      "type": "function"
    },
    {
      "inputs": [
        {
          "internalType": "uint256",
          "name": "_tokenId",
          "type": "uint256"
        },
        {
          "internalType": "address",
          "name": "_to",
          "type": "address"
        }
      ],
      "name": "transfer",
      "outputs": [
        {
          "internalType": "bool",
          "name": "",
          "type": "bool"
        }
      ],
      "stateMutability": "nonpayable",
      "type": "function"
    },
    {
      "inputs": [
        {
          "internalType": "address",
          "name": "_from",
          "type": "address"
        },
        {
          "internalType": "address",
          "name": "_to",
          "type": "address"
        },
        {
          "internalType": "uint256",
          "name": "_tokenId",
          "type": "uint256"
        }
      ],
      "name": "transferFrom",
      "outputs": [
        {
          "internalType": "bool",
          "name": "",
          "type": "bool"
        }
      ],
      "stateMutability": "nonpayable",
      "type": "function"
    }
  ],
  "bytecode": {
    "object": "0x60a06040523480156200001157600080fd5b506040516200125d3803806200125d833981016040819052620000349162000135565b600162000042848262000237565b50600262000051838262000237565b50600080546001600160a01b0319163317905560805250620003039050565b634e487b7160e01b600052604160045260246000fd5b600082601f8301126200009857600080fd5b81516001600160401b0380821115620000b557620000b562000070565b604051601f8301601f19908116603f01168101908282118183101715620000e057620000e062000070565b81604052838152602092508683858801011115620000fd57600080fd5b600091505b8382101562000121578582018301518183018401529082019062000102565b600093810190920192909252949350505050565b6000806000606084860312156200014b57600080fd5b83516001600160401b03808211156200016357600080fd5b620001718783880162000086565b945060208601519150808211156200018857600080fd5b50620001978682870162000086565b925050604084015190509250925092565b600181811c90821680620001bd57607f821691505b602082108103620001de57634e487b7160e01b600052602260045260246000fd5b50919050565b601f8211156200023257600081815260208120601f850160051c810160208610156200020d5750805b601f850160051c820191505b818110156200022e5782815560010162000219565b5050505b505050565b81516001600160401b0381111562000253576200025362000070565b6200026b81620002648454620001a8565b84620001e4565b602080601f831160018114620002a357600084156200028a5750858301515b600019600386901b1c1916600185901b1785556200022e565b600085815260208120601f198616915b82811015620002d457888601518255948401946001909101908401620002b3565b5085821015620002f35787850151600019600388901b60f8161c191681555b5050505050600190811b01905550565b608051610f37620003266000396000818161012501526104e20152610f376000f3fe608060405234801561001057600080fd5b50600436106100ea5760003560e01c80637b47ec1a1161008c578063c87b56dd11610066578063c87b56dd146101df578063dbacc237146101f2578063f658518a14610205578063febe49091461022e57600080fd5b80637b47ec1a14610194578063893d20e8146101a7578063b7760c8f146101cc57600080fd5b806318160ddd116100c857806318160ddd1461012357806323b872dd1461014957806370a082311461016c57806379c650681461017f57600080fd5b8063047fc9aa146100ef578063150704011461010657806317d7de7c1461011b575b600080fd5b6003545b6040519081526020015b60405180910390f35b61010e610241565b6040516100fd9190610d1c565b61010e6102d3565b7f00000000000000000000000000000000000000000000000000000000000000006100f3565b61015c610157366004610d6b565b6102e2565b60405190151581526020016100fd565b6100f361017a366004610da7565b61035a565b61019261018d366004610dc9565b6103e0565b005b6101926101a2366004610df3565b61063c565b6000546001600160a01b03165b6040516001600160a01b0390911681526020016100fd565b61015c6101da366004610e0c565b610753565b61010e6101ed366004610df3565b6107d0565b6101b4610200366004610df3565b6108d0565b6101b4610213366004610df3565b6000908152600760205260409020546001600160a01b031690565b61019261023c366004610e0c565b61093e565b60606002805461025090610e38565b80601f016020809104026020016040519081016040528092919081815260200182805461027c90610e38565b80156102c95780601f1061029e576101008083540402835291602001916102c9565b820191906000526020600020905b8154815290600101906020018083116102ac57829003601f168201915b5050505050905090565b60606001805461025090610e38565b60008181526007602052604081205482906001600160a01b031633148061031f57506000818152600660205260409020546001600160a01b031633145b6103445760405162461bcd60e51b815260040161033b90610e72565b60405180910390fd5b61034f858585610a1d565b506001949350505050565b60006001600160a01b0382166103c45760405162461bcd60e51b815260206004820152602960248201527f4552433732313a2061646472657373207a65726f206973206e6f7420612076616044820152683634b21037bbb732b960b91b606482015260840161033b565b506001600160a01b031660009081526005602052604090205490565b6000546001600160a01b0316331461043a5760405162461bcd60e51b815260206004820152601a60248201527f4f6e6c79206f776e65722063616e2063616c6c206d6574686f64000000000000604482015260640161033b565b6000811161048a5760405162461bcd60e51b815260206004820152601860248201527f4d757374206d696e74206174206c656173742031204e46540000000000000000604482015260640161033b565b6001600160a01b0382166104e05760405162461bcd60e51b815260206004820181905260248201527f4552433732313a206d696e7420746f20746865207a65726f2061646472657373604482015260640161033b565b7f00000000000000000000000000000000000000000000000000000000000000008161050b60045490565b6105159190610ecf565b111561056e5760405162461bcd60e51b815260206004820152602260248201527f43616e6e6f74206d696e74206d6f7265207468616e20746f74616c20737570706044820152616c7960f01b606482015260840161033b565b80600360008282546105809190610ecf565b90915550600090505b81811161060a5761059e600480546001019055565b60006105a960045490565b90506105b58482610b50565b604080516001600160a01b0386168152602081018390527f2d8eb9b9558d4b5ef1d238622692f6156d5822009340e26ab15fac05d64c12f0910160405180910390a1508061060281610ee8565b915050610589565b506001600160a01b03821660009081526005602052604081208054839290610633908490610ecf565b90915550505050565b60008181526007602052604090205481906001600160a01b031633148061067957506000818152600660205260409020546001600160a01b031633145b6106955760405162461bcd60e51b815260040161033b90610e72565b600082815260066020908152604080832080546001600160a01b03198116909155600380546000199081019091556001600160a01b03909116808552600584528285208054909201909155858452600990925290912080546106f690610e38565b15905061071457600083815260096020526040812061071491610ca2565b60408051338152602081018590527ff20884684d39657969fc7e0adb7b6d57e2c376184e1463a57c1f86e5dd7a439291015b60405180910390a1505050565b60008281526006602052604081205483906001600160a01b031633146107bb5760405162461bcd60e51b815260206004820152601b60248201527f4f6e6c7920686f6c6465722063616e2063616c6c206d6574686f640000000000604482015260640161033b565b6107c6338486610a1d565b5060019392505050565b60606107db82610c85565b6108225760405162461bcd60e51b8152602060048201526018602482015277115490cdcc8c4e881a5b9d985b1a59081d1bdad95b881a5960421b604482015260640161033b565b6000828152600960205260408120805461083b90610e38565b80601f016020809104026020016040519081016040528092919081815260200182805461086790610e38565b80156108b45780601f10610889576101008083540402835291602001916108b4565b820191906000526020600020905b81548152906001019060200180831161089757829003601f168201915b5050604080516020810190915260009052509195945050505050565b60006108db82610c85565b6109225760405162461bcd60e51b8152602060048201526018602482015277115490cdcc8c4e881a5b9d985b1a59081d1bdad95b881a5960421b604482015260640161033b565b506000908152600660205260409020546001600160a01b031690565b60008281526006602052604090205482906001600160a01b031633146109a65760405162461bcd60e51b815260206004820152601b60248201527f4f6e6c7920686f6c6465722063616e2063616c6c206d6574686f640000000000604482015260640161033b565b600083815260076020526040902080546001600160a01b0319166001600160a01b0384161790557f8c5be1e5ebec7d5bd14f71427d1e84f3dd0314c0f7b2291e5b200ac8c7c3b9256109f7846108d0565b604080516001600160a01b03928316815291851660208301528101859052606001610746565b6000818152600660205260409020546001600160a01b03848116911614610a945760405162461bcd60e51b815260206004820152602560248201527f4552433732313a207472616e736665722066726f6d20696e636f72726563742060448201526437bbb732b960d91b606482015260840161033b565b6001600160a01b038216610aea5760405162461bcd60e51b815260206004820152601860248201527f4552433732313a20696e76616c69642072656365697665720000000000000000604482015260640161033b565b600081815260076020908152604080832080546001600160a01b03199081169091556001600160a01b0396871684526005835281842080546000190190559490951680835285832080546001019055928252600690529290922080549091169091179055565b6001600160a01b038216610bb05760405162461bcd60e51b815260206004820152602160248201527f4552433732313a206d696e7420746f20746865207a65726f20616464726573736044820152602160f81b606482015260840161033b565b610bb981610c85565b15610c065760405162461bcd60e51b815260206004820152601d60248201527f4552433732313a20746f6b656e20616c7265616479206d696e74656421000000604482015260640161033b565b6001600160a01b0382166000818152600560209081526040808320805460010190558483526006825280832080546001600160a01b031916851790558051928352908201929092529081018290527fddf252ad1be2c89b69c2b068fc378daa952ba7f163c4a11628f55a4df523b3ef9060600160405180910390a15050565b600080610c91836108d0565b6001600160a01b0316141592915050565b508054610cae90610e38565b6000825580601f10610cbe575050565b601f016020900490600052602060002090810190610cdc9190610cdf565b50565b5b80821115610cf45760008155600101610ce0565b5090565b60005b83811015610d13578181015183820152602001610cfb565b50506000910152565b6020815260008251806020840152610d3b816040850160208701610cf8565b601f01601f19169190910160400192915050565b80356001600160a01b0381168114610d6657600080fd5b919050565b600080600060608486031215610d8057600080fd5b610d8984610d4f565b9250610d9760208501610d4f565b9150604084013590509250925092565b600060208284031215610db957600080fd5b610dc282610d4f565b9392505050565b60008060408385031215610ddc57600080fd5b610de583610d4f565b946020939093013593505050565b600060208284031215610e0557600080fd5b5035919050565b60008060408385031215610e1f57600080fd5b82359150610e2f60208401610d4f565b90509250929050565b600181811c90821680610e4c57607f821691505b602082108103610e6c57634e487b7160e01b600052602260045260246000fd5b50919050565b60208082526027908201527f4f6e6c7920686f6c646572206f7220617070726f7665642063616e2063616c6c604082015266081b595d1a1bd960ca1b606082015260800190565b634e487b7160e01b600052601160045260246000fd5b80820180821115610ee257610ee2610eb9565b92915050565b600060018201610efa57610efa610eb9565b506001019056fea2646970667358221220c51b9f9e04a3e26c54dbdaa06b578334fda6d08fbbb53297dab830cc6293780664736f6c63430008100033",
    "linkReferences": {}
  },
  "methodIdentifiers": {
    "approve(uint256,address)": "febe4909",
    "balanceOf(address)": "70a08231",
    "burnToken(uint256)": "7b47ec1a",
    "getApproval(uint256)": "f658518a",
    "getName()": "17d7de7c",
    "getOwner()": "893d20e8",
    "getSymbol()": "15070401",
    "holderOf(uint256)": "dbacc237",
    "mintToken(address,uint256)": "79c65068",
    "supply()": "047fc9aa",
    "tokenURI(uint256)": "c87b56dd",
    "totalSupply()": "18160ddd",
    "transfer(uint256,address)": "b7760c8f",
    "transferFrom(address,address,uint256)": "23b872dd"
  },
  "id": 7
}