{
  "abi": [
    {
      "inputs": [],
      "stateMutability": "nonpayable",
      "type": "constructor"
    },
    {
      "anonymous": false,
      "inputs": [
        {
          "indexed": false,
          "internalType": "address",
          "name": "_from",
          "type": "address"
        },
        {
          "indexed": false,
          "internalType": "address",
          "name": "_to",
          "type": "address"
        },
        {
          "indexed": false,
          "internalType": "uint256",
          "name": "_tokenId",
          "type": "uint256"
        }
      ],
      "name": "Approval",
      "type": "event"
    },
    {
      "anonymous": false,
      "inputs": [
        {
          "indexed": true,
          "internalType": "uint256",
          "name": "tokenId",
          "type": "uint256"
        },
        {
          "indexed": false,
          "internalType": "address",
          "name": "owner",
          "type": "address"
        },
        {
          "indexed": false,
          "internalType": "address",
          "name": "seller",
          "type": "address"
        },
        {
          "indexed": false,
          "internalType": "uint256",
          "name": "price",
          "type": "uint256"
        },
        {
          "indexed": false,
          "internalType": "bool",
          "name": "currentlyListed",
          "type": "bool"
        }
      ],
      "name": "TokenListedSuccess",
      "type": "event"
    },
    {
      "anonymous": false,
      "inputs": [
        {
          "indexed": false,
          "internalType": "address",
          "name": "_from",
          "type": "address"
        },
        {
          "indexed": false,
          "internalType": "address",
          "name": "_to",
          "type": "address"
        },
        {
          "indexed": false,
          "internalType": "uint256",
          "name": "_tokenId",
          "type": "uint256"
        }
      ],
      "name": "Transfer",
      "type": "event"
    },
    {
      "anonymous": false,
      "inputs": [
        {
          "indexed": false,
          "internalType": "address",
          "name": "_from",
          "type": "address"
        },
        {
          "indexed": false,
          "internalType": "uint256",
          "name": "_tokenId",
          "type": "uint256"
        }
      ],
      "name": "tokenBurned",
      "type": "event"
    },
    {
      "anonymous": false,
      "inputs": [
        {
          "indexed": false,
          "internalType": "address",
          "name": "_to",
          "type": "address"
        },
        {
          "indexed": false,
          "internalType": "uint256",
          "name": "_tokenId",
          "type": "uint256"
        }
      ],
      "name": "tokenMinted",
      "type": "event"
    },
    {
      "inputs": [
        {
          "internalType": "uint256",
          "name": "_tokenId",
          "type": "uint256"
        },
        {
          "internalType": "address",
          "name": "_to",
          "type": "address"
        }
      ],
      "name": "approve",
      "outputs": [],
      "stateMutability": "nonpayable",
      "type": "function"
    },
    {
      "inputs": [
        {
          "internalType": "address",
          "name": "_user",
          "type": "address"
        }
      ],
      "name": "balanceOf",
      "outputs": [
        {
          "internalType": "uint256",
          "name": "",
          "type": "uint256"
        }
      ],
      "stateMutability": "view",
      "type": "function"
    },
    {
      "inputs": [
        {
          "internalType": "uint256",
          "name": "_tokenId",
          "type": "uint256"
        }
      ],
      "name": "burnToken",
      "outputs": [],
      "stateMutability": "nonpayable",
      "type": "function"
    },
    {
      "inputs": [
        {
          "internalType": "string",
          "name": "_tokenURI",
          "type": "string"
        },
        {
          "internalType": "uint256",
          "name": "_price",
          "type": "uint256"
        }
      ],
      "name": "createToken",
      "outputs": [
        {
          "internalType": "uint256",
          "name": "",
          "type": "uint256"
        }
      ],
      "stateMutability": "payable",
      "type": "function"
    },
    {
      "inputs": [
        {
          "internalType": "uint256",
          "name": "_tokenId",
          "type": "uint256"
        }
      ],
      "name": "executeSale",
      "outputs": [],
      "stateMutability": "payable",
      "type": "function"
    },
    {
      "inputs": [],
      "name": "getAllNFTs",
      "outputs": [
        {
          "components": [
            {
              "internalType": "uint256",
              "name": "tokenId",
              "type": "uint256"
            },
            {
              "internalType": "address payable",
              "name": "owner",
              "type": "address"
            },
            {
              "internalType": "address payable",
              "name": "seller",
              "type": "address"
            },
            {
              "internalType": "uint256",
              "name": "price",
              "type": "uint256"
            },
            {
              "internalType": "bool",
              "name": "currentlyListed",
              "type": "bool"
            }
          ],
          "internalType": "struct NFTMarketplace.ListedToken[]",
          "name": "",
          "type": "tuple[]"
        }
      ],
      "stateMutability": "view",
      "type": "function"
    },
    {
      "inputs": [
        {
          "internalType": "uint256",
          "name": "_tokenId",
          "type": "uint256"
        }
      ],
      "name": "getApproval",
      "outputs": [
        {
          "internalType": "address",
          "name": "",
          "type": "address"
        }
      ],
      "stateMutability": "view",
      "type": "function"
    },
    {
      "inputs": [],
      "name": "getCurrentToken",
      "outputs": [
        {
          "internalType": "uint256",
          "name": "",
          "type": "uint256"
        }
      ],
      "stateMutability": "view",
      "type": "function"
    },
    {
      "inputs": [],
      "name": "getLatestIdToListedToken",
      "outputs": [
        {
          "components": [
            {
              "internalType": "uint256",
              "name": "tokenId",
              "type": "uint256"
            },
            {
              "internalType": "address payable",
              "name": "owner",
              "type": "address"
            },
            {
              "internalType": "address payable",
              "name": "seller",
              "type": "address"
            },
            {
              "internalType": "uint256",
              "name": "price",
              "type": "uint256"
            },
            {
              "internalType": "bool",
              "name": "currentlyListed",
              "type": "bool"
            }
          ],
          "internalType": "struct NFTMarketplace.ListedToken",
          "name": "",
          "type": "tuple"
        }
      ],
      "stateMutability": "view",
      "type": "function"
    },
    {
      "inputs": [],
      "name": "getListPrice",
      "outputs": [
        {
          "internalType": "uint256",
          "name": "",
          "type": "uint256"
        }
      ],
      "stateMutability": "view",
      "type": "function"
    },
    {
      "inputs": [
        {
          "internalType": "uint256",
          "name": "_tokenId",
          "type": "uint256"
        }
      ],
      "name": "getListedTokenForId",
      "outputs": [
        {
          "components": [
            {
              "internalType": "uint256",
              "name": "tokenId",
              "type": "uint256"
            },
            {
              "internalType": "address payable",
              "name": "owner",
              "type": "address"
            },
            {
              "internalType": "address payable",
              "name": "seller",
              "type": "address"
            },
            {
              "internalType": "uint256",
              "name": "price",
              "type": "uint256"
            },
            {
              "internalType": "bool",
              "name": "currentlyListed",
              "type": "bool"
            }
          ],
          "internalType": "struct NFTMarketplace.ListedToken",
          "name": "",
          "type": "tuple"
        }
      ],
      "stateMutability": "view",
      "type": "function"
    },
    {
      "inputs": [],
      "name": "getMyNFTs",
      "outputs": [
        {
          "components": [
            {
              "internalType": "uint256",
              "name": "tokenId",
              "type": "uint256"
            },
            {
              "internalType": "address payable",
              "name": "owner",
              "type": "address"
            },
            {
              "internalType": "address payable",
              "name": "seller",
              "type": "address"
            },
            {
              "internalType": "uint256",
              "name": "price",
              "type": "uint256"
            },
            {
              "internalType": "bool",
              "name": "currentlyListed",
              "type": "bool"
            }
          ],
          "internalType": "struct NFTMarketplace.ListedToken[]",
          "name": "",
          "type": "tuple[]"
        }
      ],
      "stateMutability": "view",
      "type": "function"
    },
    {
      "inputs": [],
      "name": "getName",
      "outputs": [
        {
          "internalType": "string",
          "name": "",
          "type": "string"
        }
      ],
      "stateMutability": "view",
      "type": "function"
    },
    {
      "inputs": [],
      "name": "getOwner",
      "outputs": [
        {
          "internalType": "address",
          "name": "",
          "type": "address"
        }
      ],
      "stateMutability": "view",
      "type": "function"
    },
    {
      "inputs": [],
      "name": "getSymbol",
      "outputs": [
        {
          "internalType": "string",
          "name": "",
          "type": "string"
        }
      ],
      "stateMutability": "view",
      "type": "function"
    },
    {
      "inputs": [
        {
          "internalType": "uint256",
          "name": "_tokenId",
          "type": "uint256"
        }
      ],
      "name": "holderOf",
      "outputs": [
        {
          "internalType": "address",
          "name": "",
          "type": "address"
        }
      ],
      "stateMutability": "view",
      "type": "function"
    },
    {
      "inputs": [
        {
          "internalType": "address",
          "name": "_to",
          "type": "address"
        },
        {
          "internalType": "uint256",
          "name": "_amount",
          "type": "uint256"
        }
      ],
      "name": "mintToken",
      "outputs": [],
      "stateMutability": "nonpayable",
      "type": "function"
    },
    {
      "inputs": [],
      "name": "supply",
      "outputs": [
        {
          "internalType": "uint256",
          "name": "",
          "type": "uint256"
        }
      ],
      "stateMutability": "view",
      "type": "function"
    },
    {
      "inputs": [
        {
          "internalType": "uint256",
          "name": "_tokenId",
          "type": "uint256"
        }
      ],
      "name": "tokenURI",
      "outputs": [
        {
          "internalType": "string",
          "name": "",
          "type": "string"
        }
      ],
      "stateMutability": "view",
      "type": "function"
    },
    {
      "inputs": [],
      "name": "totalSupply",
      "outputs": [
        {
          "internalType": "uint256",
          "name": "",
          "type": "uint256"
        }
      ],
      "stateMutability": "view",
      "type": "function"
    },
    {
      "inputs": [
        {
          "internalType": "uint256",
          "name": "_tokenId",
          "type": "uint256"
        },
        {
          "internalType": "address",
          "name": "_to",
          "type": "address"
        }
      ],
      "name": "transfer",
      "outputs": [
        {
          "internalType": "bool",
          "name": "",
          "type": "bool"
        }
      ],
      "stateMutability": "nonpayable",
      "type": "function"
    },
    {
      "inputs": [
        {
          "internalType": "address",
          "name": "_from",
          "type": "address"
        },
        {
          "internalType": "address",
          "name": "_to",
          "type": "address"
        },
        {
          "internalType": "uint256",
          "name": "_tokenId",
          "type": "uint256"
        }
      ],
      "name": "transferFrom",
      "outputs": [
        {
          "internalType": "bool",
          "name": "",
          "type": "bool"
        }
      ],
      "stateMutability": "nonpayable",
      "type": "function"
    },
    {
      "inputs": [
        {
          "internalType": "uint256",
          "name": "_listPrice",
          "type": "uint256"
        }
      ],
      "name": "updateListPrice",
      "outputs": [],
      "stateMutability": "payable",
      "type": "function"
    }
  ],
  "bytecode": {
    "object": "0x60a0604052662386f26fc10000600c553480156200001c57600080fd5b506040518060400160405280600f81526020016e4e46545f4d61726b6574706c61636560881b815250604051806040016040528060048152602001634e46544d60e01b8152506001826001908162000075919062000159565b50600262000084838262000159565b5060008054336001600160a01b03199182168117909255608092909252600b805490921617905550620002259050565b634e487b7160e01b600052604160045260246000fd5b600181811c90821680620000df57607f821691505b6020821081036200010057634e487b7160e01b600052602260045260246000fd5b50919050565b601f8211156200015457600081815260208120601f850160051c810160208610156200012f5750805b601f850160051c820191505b8181101562000150578281556001016200013b565b5050505b505050565b81516001600160401b03811115620001755762000175620000b4565b6200018d81620001868454620000ca565b8462000106565b602080601f831160018114620001c55760008415620001ac5750858301515b600019600386901b1c1916600185901b17855562000150565b600085815260208120601f198616915b82811015620001f657888601518255948401946001909101908401620001d5565b5085821015620002155787850151600019600388901b60f8161c191681555b5050505050600190811b01905550565b608051611bb762000248600039600081816101af01526109480152611bb76000f3fe6080604052600436106101405760003560e01c8063893d20e8116100b6578063d1a88ae51161006f578063d1a88ae514610374578063dbacc23714610389578063e0391b09146103bf578063ef2d1746146103d4578063f658518a146103e9578063febe49091461041f57600080fd5b8063893d20e8146102af5780638e264590146102e15780639b1225c41461030e578063b7760c8f14610321578063c322579c14610341578063c87b56dd1461035457600080fd5b8063629cb2e411610108578063629cb2e41461020357806368f1945f1461022557806370a082311461023a57806372b3b6201461025a57806379c650681461026d5780637b47ec1a1461028f57600080fd5b8063047fc9aa14610145578063150704011461016957806317d7de7c1461018b57806318160ddd146101a057806323b872dd146101d3575b600080fd5b34801561015157600080fd5b506003545b6040519081526020015b60405180910390f35b34801561017557600080fd5b5061017e61043f565b6040516101609190611717565b34801561019757600080fd5b5061017e6104d1565b3480156101ac57600080fd5b507f0000000000000000000000000000000000000000000000000000000000000000610156565b3480156101df57600080fd5b506101f36101ee366004611766565b6104e0565b6040519015158152602001610160565b34801561020f57600080fd5b50610218610558565b60405161016091906117e2565b34801561023157600080fd5b50600c54610156565b34801561024657600080fd5b50610156610255366004611830565b61077c565b610156610268366004611868565b610802565b34801561027957600080fd5b5061028d61028836600461191d565b610846565b005b34801561029b57600080fd5b5061028d6102aa366004611947565b610a76565b3480156102bb57600080fd5b506000546001600160a01b03165b6040516001600160a01b039091168152602001610160565b3480156102ed57600080fd5b506103016102fc366004611947565b610b8d565b6040516101609190611960565b61028d61031c366004611947565b610bf7565b34801561032d57600080fd5b506101f361033c36600461196e565b610d2b565b61028d61034f366004611947565b610da8565b34801561036057600080fd5b5061017e61036f366004611947565b610e13565b34801561038057600080fd5b50610301610f30565b34801561039557600080fd5b506102c96103a4366004611947565b6000908152600660205260409020546001600160a01b031690565b3480156103cb57600080fd5b50610218610fa7565b3480156103e057600080fd5b506101566110bc565b3480156103f557600080fd5b506102c9610404366004611947565b6000908152600760205260409020546001600160a01b031690565b34801561042b57600080fd5b5061028d61043a36600461196e565b6110cc565b60606002805461044e9061199a565b80601f016020809104026020016040519081016040528092919081815260200182805461047a9061199a565b80156104c75780601f1061049c576101008083540402835291602001916104c7565b820191906000526020600020905b8154815290600101906020018083116104aa57829003601f168201915b5050505050905090565b60606001805461044e9061199a565b60008181526007602052604081205482906001600160a01b031633148061051d57506000818152600660205260409020546001600160a01b031633145b6105425760405162461bcd60e51b8152600401610539906119d4565b60405180910390fd5b61054d8585856111c3565b506001949350505050565b6060600061056560095490565b905060008060005b838110156105fd5733600d6000610585846001611a31565b81526020810191909152604001600020600101546001600160a01b031614806105d8575033600d60006105b9846001611a31565b81526020810191909152604001600020600201546001600160a01b0316145b156105eb576105e8600184611a31565b92505b806105f581611a44565b91505061056d565b5060008267ffffffffffffffff81111561061957610619611852565b60405190808252806020026020018201604052801561065257816020015b61063f61166f565b8152602001906001900390816106375790505b50905060005b848110156107735733600d6000610670846001611a31565b81526020810191909152604001600020600101546001600160a01b031614806106c3575033600d60006106a4846001611a31565b81526020810191909152604001600020600201546001600160a01b0316145b1561076157600d60006106d7836001611a31565b81526020808201929092526040908101600020815160a0810183528154815260018201546001600160a01b0390811694820194909452600282015490931691830191909152600381015460608301526004015460ff1615156080820152825183908590811061074857610748611a5d565b602090810291909101015261075e600184611a31565b92505b8061076b81611a44565b915050610658565b50949350505050565b60006001600160a01b0382166107e65760405162461bcd60e51b815260206004820152602960248201527f4552433732313a2061646472657373207a65726f206973206e6f7420612076616044820152683634b21037bbb732b960b91b6064820152608401610539565b506001600160a01b031660009081526005602052604090205490565b6000610812600980546001019055565b600061081d60095490565b905061082933826112f6565b61083381856113fc565b61083d8184611484565b90505b92915050565b6000546001600160a01b031633146108a05760405162461bcd60e51b815260206004820152601a60248201527f4f6e6c79206f776e65722063616e2063616c6c206d6574686f640000000000006044820152606401610539565b600081116108f05760405162461bcd60e51b815260206004820152601860248201527f4d757374206d696e74206174206c656173742031204e465400000000000000006044820152606401610539565b6001600160a01b0382166109465760405162461bcd60e51b815260206004820181905260248201527f4552433732313a206d696e7420746f20746865207a65726f20616464726573736044820152606401610539565b7f00000000000000000000000000000000000000000000000000000000000000008161097160045490565b61097b9190611a31565b11156109d45760405162461bcd60e51b815260206004820152602260248201527f43616e6e6f74206d696e74206d6f7265207468616e20746f74616c20737570706044820152616c7960f01b6064820152608401610539565b80600360008282546109e69190611a31565b90915550600090505b81811015610a7157610a05600480546001019055565b6000610a1060045490565b9050610a1c84826112f6565b604080516001600160a01b0386168152602081018390527f2d8eb9b9558d4b5ef1d238622692f6156d5822009340e26ab15fac05d64c12f0910160405180910390a15080610a6981611a44565b9150506109ef565b505050565b60008181526007602052604090205481906001600160a01b0316331480610ab357506000818152600660205260409020546001600160a01b031633145b610acf5760405162461bcd60e51b8152600401610539906119d4565b600082815260066020908152604080832080546001600160a01b03198116909155600380546000199081019091556001600160a01b0390911680855260058452828520805490920190915585845260089092529091208054610b309061199a565b159050610b4e576000838152600860205260408120610b4e9161169d565b60408051338152602081018590527ff20884684d39657969fc7e0adb7b6d57e2c376184e1463a57c1f86e5dd7a439291015b60405180910390a1505050565b610b9561166f565b506000908152600d6020908152604091829020825160a0810184528154815260018201546001600160a01b03908116938201939093526002820154909216928201929092526003820154606082015260049091015460ff161515608082015290565b6000818152600d6020526040902060038101546002909101546001600160a01b0316348214610c605760405162461bcd60e51b8152602060048201526015602482015274496e636f727265637420707269636520706169642160581b6044820152606401610539565b6000838152600d6020526040902060048101805460ff1916600117905560020180546001600160a01b03191633179055610c9e600a80546001019055565b610ca93033856111c3565b610cb383306110cc565b600b54600c546040516001600160a01b039092169181156108fc0291906000818181858888f19350505050158015610cef573d6000803e3d6000fd5b506040516001600160a01b038216903480156108fc02916000818181858888f19350505050158015610d25573d6000803e3d6000fd5b50505050565b60008281526006602052604081205483906001600160a01b03163314610d935760405162461bcd60e51b815260206004820152601b60248201527f4f6e6c7920686f6c6465722063616e2063616c6c206d6574686f6400000000006044820152606401610539565b610d9e3384866111c3565b5060019392505050565b600b546001600160a01b03163314610e0e5760405162461bcd60e51b815260206004820152602360248201527f4f6e6c79206f776e65722063616e20757064617465206c697374696e6720707260448201526269636560e81b6064820152608401610539565b600c55565b6000818152600660205260409020546060906001600160a01b0316610e7a5760405162461bcd60e51b815260206004820152601860248201527f4552433732313a20696e76616c696420746f6b656e20696400000000000000006044820152606401610539565b60008281526008602052604081208054610e939061199a565b80601f0160208091040260200160405190810160405280929190818152602001828054610ebf9061199a565b8015610f0c5780601f10610ee157610100808354040283529160200191610f0c565b820191906000526020600020905b815481529060010190602001808311610eef57829003601f168201915b5050604080516020810190915260009052509195945050505050565b949350505050565b610f3861166f565b6000610f4360095490565b6000908152600d6020908152604091829020825160a0810184528154815260018201546001600160a01b03908116938201939093526002820154909216928201929092526003820154606082015260049091015460ff161515608082015292915050565b60606000610fb36110bc565b905060008167ffffffffffffffff811115610fd057610fd0611852565b60405190808252806020026020018201604052801561100957816020015b610ff661166f565b815260200190600190039081610fee5790505b50905060005b828110156110b557600d6000611026836001611a31565b81526020808201929092526040908101600020815160a0810183528154815260018201546001600160a01b0390811694820194909452600282015490931691830191909152600381015460608301526004015460ff1615156080820152825183908390811061109757611097611a5d565b602002602001018190525080806110ad90611a44565b91505061100f565b5092915050565b60006110c760095490565b905090565b60008281526006602052604090205482906001600160a01b031633146111345760405162461bcd60e51b815260206004820152601b60248201527f4f6e6c7920686f6c6465722063616e2063616c6c206d6574686f6400000000006044820152606401610539565b600083815260076020526040902080546001600160a01b0384166001600160a01b03199091161790557f8c5be1e5ebec7d5bd14f71427d1e84f3dd0314c0f7b2291e5b200ac8c7c3b92561119d846000908152600660205260409020546001600160a01b031690565b604080516001600160a01b03928316815291851660208301528101859052606001610b80565b6000818152600660205260409020546001600160a01b0384811691161461123a5760405162461bcd60e51b815260206004820152602560248201527f4552433732313a207472616e736665722066726f6d20696e636f72726563742060448201526437bbb732b960d91b6064820152608401610539565b6001600160a01b0382166112905760405162461bcd60e51b815260206004820152601860248201527f4552433732313a20696e76616c696420726563656976657200000000000000006044820152606401610539565b600081815260076020908152604080832080546001600160a01b03199081169091556001600160a01b0396871684526005835281842080546000190190559490951680835285832080546001019055928252600690529290922080549091169091179055565b6001600160a01b0382166113565760405162461bcd60e51b815260206004820152602160248201527f4552433732313a206d696e7420746f20746865207a65726f20616464726573736044820152602160f81b6064820152608401610539565b6000818152600660205260409020546001600160a01b0316156113bb5760405162461bcd60e51b815260206004820152601d60248201527f4552433732313a20746f6b656e20616c7265616479206d696e746564210000006044820152606401610539565b6001600160a01b03909116600081815260056020908152604080832080546001019055938252600690529190912080546001600160a01b0319169091179055565b6000828152600660205260409020546001600160a01b031661146c5760405162461bcd60e51b8152602060048201526024808201527f4552433732313a2055524920736574206f66206e6f6e6578697374656e74207460448201526337b5b2b760e11b6064820152608401610539565b6000828152600860205260409020610a718282611ac1565b600c543410156114c85760405162461bcd60e51b815260206004820152600f60248201526e4e6f7420656e6f756768206665652160881b6044820152606401610539565b600081116115185760405162461bcd60e51b815260206004820152601e60248201527f5072696365206861766520746f206265206c6172676572207468616e203000006044820152606401610539565b6115223383611628565b61153e5760405162461bcd60e51b8152600401610539906119d4565b6040805160a081018252838152306020808301828152338486018181526060860188815260016080880181815260008c8152600d9097529890952096518755925193860180546001600160a01b039586166001600160a01b03199182161790915590516002870180549190951691161790925551600384015592516004909201805492151560ff19909316929092179091556115db9190846111c3565b604080513081523360208201529081018290526001606082015282907f9339409317fd01fabff48b703019016f49159bacc801ae872d2ca637d226e4c09060800160405180910390a25050565b6000818152600660205260408120546001600160a01b03908116908416811480610f28575050506000908152600760205260409020546001600160a01b0390811691161490565b6040805160a08101825260008082526020820181905291810182905260608101829052608081019190915290565b5080546116a99061199a565b6000825580601f106116b9575050565b601f0160209004906000526020600020908101906116d791906116da565b50565b5b808211156116ef57600081556001016116db565b5090565b60005b8381101561170e5781810151838201526020016116f6565b50506000910152565b60208152600082518060208401526117368160408501602087016116f3565b601f01601f19169190910160400192915050565b80356001600160a01b038116811461176157600080fd5b919050565b60008060006060848603121561177b57600080fd5b6117848461174a565b92506117926020850161174a565b9150604084013590509250925092565b805182526020808201516001600160a01b039081169184019190915260408083015190911690830152606080820151908301526080908101511515910152565b6020808252825182820181905260009190848201906040850190845b81811015611824576118118385516117a2565b9284019260a092909201916001016117fe565b50909695505050505050565b60006020828403121561184257600080fd5b61184b8261174a565b9392505050565b634e487b7160e01b600052604160045260246000fd5b6000806040838503121561187b57600080fd5b823567ffffffffffffffff8082111561189357600080fd5b818501915085601f8301126118a757600080fd5b8135818111156118b9576118b9611852565b604051601f8201601f19908116603f011681019083821181831017156118e1576118e1611852565b816040528281528860208487010111156118fa57600080fd5b826020860160208301376000602093820184015298969091013596505050505050565b6000806040838503121561193057600080fd5b6119398361174a565b946020939093013593505050565b60006020828403121561195957600080fd5b5035919050565b60a0810161084082846117a2565b6000806040838503121561198157600080fd5b823591506119916020840161174a565b90509250929050565b600181811c908216806119ae57607f821691505b6020821081036119ce57634e487b7160e01b600052602260045260246000fd5b50919050565b60208082526027908201527f4f6e6c7920686f6c646572206f7220617070726f7665642063616e2063616c6c604082015266081b595d1a1bd960ca1b606082015260800190565b634e487b7160e01b600052601160045260246000fd5b8082018082111561084057610840611a1b565b600060018201611a5657611a56611a1b565b5060010190565b634e487b7160e01b600052603260045260246000fd5b601f821115610a7157600081815260208120601f850160051c81016020861015611a9a5750805b601f850160051c820191505b81811015611ab957828155600101611aa6565b505050505050565b815167ffffffffffffffff811115611adb57611adb611852565b611aef81611ae9845461199a565b84611a73565b602080601f831160018114611b245760008415611b0c5750858301515b600019600386901b1c1916600185901b178555611ab9565b600085815260208120601f198616915b82811015611b5357888601518255948401946001909101908401611b34565b5085821015611b715787850151600019600388901b60f8161c191681555b5050505050600190811b0190555056fea26469706673582212200c2a5ef5724e52dcecf3dede6db69921bef7333e58ec6c391a7141fd9e7052ce64736f6c63430008100033",
    "linkReferences": {}
  },
  "methodIdentifiers": {
    "approve(uint256,address)": "febe4909",
    "balanceOf(address)": "70a08231",
    "burnToken(uint256)": "7b47ec1a",
    "createToken(string,uint256)": "72b3b620",
    "executeSale(uint256)": "9b1225c4",
    "getAllNFTs()": "e0391b09",
    "getApproval(uint256)": "f658518a",
    "getCurrentToken()": "ef2d1746",
    "getLatestIdToListedToken()": "d1a88ae5",
    "getListPrice()": "68f1945f",
    "getListedTokenForId(uint256)": "8e264590",
    "getMyNFTs()": "629cb2e4",
    "getName()": "17d7de7c",
    "getOwner()": "893d20e8",
    "getSymbol()": "15070401",
    "holderOf(uint256)": "dbacc237",
    "mintToken(address,uint256)": "79c65068",
    "supply()": "047fc9aa",
    "tokenURI(uint256)": "c87b56dd",
    "totalSupply()": "18160ddd",
    "transfer(uint256,address)": "b7760c8f",
    "transferFrom(address,address,uint256)": "23b872dd",
    "updateListPrice(uint256)": "c322579c"
  },
  "id": 8
}