{
  "abi": [
    {
      "inputs": [],
      "stateMutability": "nonpayable",
      "type": "constructor"
    },
    {
      "anonymous": false,
      "inputs": [
        {
          "indexed": false,
          "internalType": "address",
          "name": "_from",
          "type": "address"
        },
        {
          "indexed": false,
          "internalType": "address",
          "name": "_to",
          "type": "address"
        },
        {
          "indexed": false,
          "internalType": "uint256",
          "name": "_tokenId",
          "type": "uint256"
        }
      ],
      "name": "Approval",
      "type": "event"
    },
    {
      "anonymous": false,
      "inputs": [
        {
          "indexed": true,
          "internalType": "uint256",
          "name": "tokenId",
          "type": "uint256"
        },
        {
          "indexed": false,
          "internalType": "address",
          "name": "owner",
          "type": "address"
        },
        {
          "indexed": false,
          "internalType": "address",
          "name": "seller",
          "type": "address"
        },
        {
          "indexed": false,
          "internalType": "uint256",
          "name": "price",
          "type": "uint256"
        },
        {
          "indexed": false,
          "internalType": "bool",
          "name": "currentlyListed",
          "type": "bool"
        }
      ],
      "name": "TokenListedSuccess",
      "type": "event"
    },
    {
      "anonymous": false,
      "inputs": [
        {
          "indexed": false,
          "internalType": "address",
          "name": "_from",
          "type": "address"
        },
        {
          "indexed": false,
          "internalType": "address",
          "name": "_to",
          "type": "address"
        },
        {
          "indexed": false,
          "internalType": "uint256",
          "name": "_tokenId",
          "type": "uint256"
        }
      ],
      "name": "Transfer",
      "type": "event"
    },
    {
      "anonymous": false,
      "inputs": [
        {
          "indexed": false,
          "internalType": "address",
          "name": "_from",
          "type": "address"
        },
        {
          "indexed": false,
          "internalType": "uint256",
          "name": "_tokenId",
          "type": "uint256"
        }
      ],
      "name": "tokenBurned",
      "type": "event"
    },
    {
      "anonymous": false,
      "inputs": [
        {
          "indexed": false,
          "internalType": "address",
          "name": "_to",
          "type": "address"
        },
        {
          "indexed": false,
          "internalType": "uint256",
          "name": "_tokenId",
          "type": "uint256"
        }
      ],
      "name": "tokenMinted",
      "type": "event"
    },
    {
      "inputs": [
        {
          "internalType": "uint256",
          "name": "_tokenId",
          "type": "uint256"
        },
        {
          "internalType": "address",
          "name": "_to",
          "type": "address"
        }
      ],
      "name": "approve",
      "outputs": [],
      "stateMutability": "nonpayable",
      "type": "function"
    },
    {
      "inputs": [
        {
          "internalType": "address",
          "name": "_user",
          "type": "address"
        }
      ],
      "name": "balanceOf",
      "outputs": [
        {
          "internalType": "uint256",
          "name": "",
          "type": "uint256"
        }
      ],
      "stateMutability": "view",
      "type": "function"
    },
    {
      "inputs": [
        {
          "internalType": "uint256",
          "name": "_tokenId",
          "type": "uint256"
        }
      ],
      "name": "burnToken",
      "outputs": [],
      "stateMutability": "nonpayable",
      "type": "function"
    },
    {
      "inputs": [
        {
          "internalType": "string",
          "name": "_tokenURI",
          "type": "string"
        },
        {
          "internalType": "uint256",
          "name": "_price",
          "type": "uint256"
        }
      ],
      "name": "createToken",
      "outputs": [
        {
          "internalType": "uint256",
          "name": "",
          "type": "uint256"
        }
      ],
      "stateMutability": "payable",
      "type": "function"
    },
    {
      "inputs": [
        {
          "internalType": "uint256",
          "name": "_tokenId",
          "type": "uint256"
        }
      ],
      "name": "executeSale",
      "outputs": [],
      "stateMutability": "payable",
      "type": "function"
    },
    {
      "inputs": [],
      "name": "getAllNFTs",
      "outputs": [
        {
          "components": [
            {
              "internalType": "uint256",
              "name": "tokenId",
              "type": "uint256"
            },
            {
              "internalType": "address payable",
              "name": "owner",
              "type": "address"
            },
            {
              "internalType": "address payable",
              "name": "seller",
              "type": "address"
            },
            {
              "internalType": "uint256",
              "name": "price",
              "type": "uint256"
            },
            {
              "internalType": "bool",
              "name": "currentlyListed",
              "type": "bool"
            }
          ],
          "internalType": "struct NFTMarketplace.ListedToken[]",
          "name": "",
          "type": "tuple[]"
        }
      ],
      "stateMutability": "view",
      "type": "function"
    },
    {
      "inputs": [
        {
          "internalType": "uint256",
          "name": "_tokenId",
          "type": "uint256"
        }
      ],
      "name": "getApproval",
      "outputs": [
        {
          "internalType": "address",
          "name": "",
          "type": "address"
        }
      ],
      "stateMutability": "view",
      "type": "function"
    },
    {
      "inputs": [],
      "name": "getCurrentToken",
      "outputs": [
        {
          "internalType": "uint256",
          "name": "",
          "type": "uint256"
        }
      ],
      "stateMutability": "view",
      "type": "function"
    },
    {
      "inputs": [],
      "name": "getLatestIdToListedToken",
      "outputs": [
        {
          "components": [
            {
              "internalType": "uint256",
              "name": "tokenId",
              "type": "uint256"
            },
            {
              "internalType": "address payable",
              "name": "owner",
              "type": "address"
            },
            {
              "internalType": "address payable",
              "name": "seller",
              "type": "address"
            },
            {
              "internalType": "uint256",
              "name": "price",
              "type": "uint256"
            },
            {
              "internalType": "bool",
              "name": "currentlyListed",
              "type": "bool"
            }
          ],
          "internalType": "struct NFTMarketplace.ListedToken",
          "name": "",
          "type": "tuple"
        }
      ],
      "stateMutability": "view",
      "type": "function"
    },
    {
      "inputs": [],
      "name": "getListPrice",
      "outputs": [
        {
          "internalType": "uint256",
          "name": "",
          "type": "uint256"
        }
      ],
      "stateMutability": "view",
      "type": "function"
    },
    {
      "inputs": [
        {
          "internalType": "uint256",
          "name": "_tokenId",
          "type": "uint256"
        }
      ],
      "name": "getListedTokenForId",
      "outputs": [
        {
          "components": [
            {
              "internalType": "uint256",
              "name": "tokenId",
              "type": "uint256"
            },
            {
              "internalType": "address payable",
              "name": "owner",
              "type": "address"
            },
            {
              "internalType": "address payable",
              "name": "seller",
              "type": "address"
            },
            {
              "internalType": "uint256",
              "name": "price",
              "type": "uint256"
            },
            {
              "internalType": "bool",
              "name": "currentlyListed",
              "type": "bool"
            }
          ],
          "internalType": "struct NFTMarketplace.ListedToken",
          "name": "",
          "type": "tuple"
        }
      ],
      "stateMutability": "view",
      "type": "function"
    },
    {
      "inputs": [],
      "name": "getMyNFTs",
      "outputs": [
        {
          "components": [
            {
              "internalType": "uint256",
              "name": "tokenId",
              "type": "uint256"
            },
            {
              "internalType": "address payable",
              "name": "owner",
              "type": "address"
            },
            {
              "internalType": "address payable",
              "name": "seller",
              "type": "address"
            },
            {
              "internalType": "uint256",
              "name": "price",
              "type": "uint256"
            },
            {
              "internalType": "bool",
              "name": "currentlyListed",
              "type": "bool"
            }
          ],
          "internalType": "struct NFTMarketplace.ListedToken[]",
          "name": "",
          "type": "tuple[]"
        }
      ],
      "stateMutability": "view",
      "type": "function"
    },
    {
      "inputs": [],
      "name": "getName",
      "outputs": [
        {
          "internalType": "string",
          "name": "",
          "type": "string"
        }
      ],
      "stateMutability": "view",
      "type": "function"
    },
    {
      "inputs": [],
      "name": "getOwner",
      "outputs": [
        {
          "internalType": "address",
          "name": "",
          "type": "address"
        }
      ],
      "stateMutability": "view",
      "type": "function"
    },
    {
      "inputs": [],
      "name": "getSymbol",
      "outputs": [
        {
          "internalType": "string",
          "name": "",
          "type": "string"
        }
      ],
      "stateMutability": "view",
      "type": "function"
    },
    {
      "inputs": [
        {
          "internalType": "uint256",
          "name": "_tokenId",
          "type": "uint256"
        }
      ],
      "name": "holderOf",
      "outputs": [
        {
          "internalType": "address",
          "name": "",
          "type": "address"
        }
      ],
      "stateMutability": "view",
      "type": "function"
    },
    {
      "inputs": [
        {
          "internalType": "address",
          "name": "_to",
          "type": "address"
        },
        {
          "internalType": "uint256",
          "name": "_amount",
          "type": "uint256"
        }
      ],
      "name": "mintToken",
      "outputs": [],
      "stateMutability": "nonpayable",
      "type": "function"
    },
    {
      "inputs": [],
      "name": "supply",
      "outputs": [
        {
          "internalType": "uint256",
          "name": "",
          "type": "uint256"
        }
      ],
      "stateMutability": "view",
      "type": "function"
    },
    {
      "inputs": [
        {
          "internalType": "uint256",
          "name": "_tokenId",
          "type": "uint256"
        }
      ],
      "name": "tokenURI",
      "outputs": [
        {
          "internalType": "string",
          "name": "",
          "type": "string"
        }
      ],
      "stateMutability": "view",
      "type": "function"
    },
    {
      "inputs": [],
      "name": "totalSupply",
      "outputs": [
        {
          "internalType": "uint256",
          "name": "",
          "type": "uint256"
        }
      ],
      "stateMutability": "view",
      "type": "function"
    },
    {
      "inputs": [
        {
          "internalType": "uint256",
          "name": "_tokenId",
          "type": "uint256"
        },
        {
          "internalType": "address",
          "name": "_to",
          "type": "address"
        }
      ],
      "name": "transfer",
      "outputs": [
        {
          "internalType": "bool",
          "name": "",
          "type": "bool"
        }
      ],
      "stateMutability": "nonpayable",
      "type": "function"
    },
    {
      "inputs": [
        {
          "internalType": "address",
          "name": "_from",
          "type": "address"
        },
        {
          "internalType": "address",
          "name": "_to",
          "type": "address"
        },
        {
          "internalType": "uint256",
          "name": "_tokenId",
          "type": "uint256"
        }
      ],
      "name": "transferFrom",
      "outputs": [
        {
          "internalType": "bool",
          "name": "",
          "type": "bool"
        }
      ],
      "stateMutability": "nonpayable",
      "type": "function"
    },
    {
      "inputs": [
        {
          "internalType": "uint256",
          "name": "_listPrice",
          "type": "uint256"
        }
      ],
      "name": "updateListPrice",
      "outputs": [],
      "stateMutability": "payable",
      "type": "function"
    }
  ],
  "bytecode": {
    "object": "0x60a0604052662386f26fc10000600d553480156200001c57600080fd5b506040518060400160405280600f81526020016e4e46545f4d61726b6574706c61636560881b815250604051806040016040528060048152602001634e46544d60e01b8152506001826001908162000075919062000159565b50600262000084838262000159565b5060008054336001600160a01b03199182168117909255608092909252600c805490921617905550620002259050565b634e487b7160e01b600052604160045260246000fd5b600181811c90821680620000df57607f821691505b6020821081036200010057634e487b7160e01b600052602260045260246000fd5b50919050565b601f8211156200015457600081815260208120601f850160051c810160208610156200012f5750805b601f850160051c820191505b8181101562000150578281556001016200013b565b5050505b505050565b81516001600160401b03811115620001755762000175620000b4565b6200018d81620001868454620000ca565b8462000106565b602080601f831160018114620001c55760008415620001ac5750858301515b600019600386901b1c1916600185901b17855562000150565b600085815260208120601f198616915b82811015620001f657888601518255948401946001909101908401620001d5565b5085821015620002155787850151600019600388901b60f8161c191681555b5050505050600190811b01905550565b608051611b8062000248600039600081816101af01526109320152611b806000f3fe6080604052600436106101405760003560e01c8063893d20e8116100b6578063d1a88ae51161006f578063d1a88ae514610374578063dbacc23714610389578063e0391b09146103a9578063ef2d1746146103be578063f658518a146103d3578063febe49091461040957600080fd5b8063893d20e8146102af5780638e264590146102e15780639b1225c41461030e578063b7760c8f14610321578063c322579c14610341578063c87b56dd1461035457600080fd5b8063629cb2e411610108578063629cb2e41461020357806368f1945f1461022557806370a082311461023a57806372b3b6201461025a57806379c650681461026d5780637b47ec1a1461028f57600080fd5b8063047fc9aa14610145578063150704011461016957806317d7de7c1461018b57806318160ddd146101a057806323b872dd146101d3575b600080fd5b34801561015157600080fd5b506003545b6040519081526020015b60405180910390f35b34801561017557600080fd5b5061017e610429565b60405161016091906116e0565b34801561019757600080fd5b5061017e6104bb565b3480156101ac57600080fd5b507f0000000000000000000000000000000000000000000000000000000000000000610156565b3480156101df57600080fd5b506101f36101ee36600461172f565b6104ca565b6040519015158152602001610160565b34801561020f57600080fd5b50610218610542565b60405161016091906117ab565b34801561023157600080fd5b50600d54610156565b34801561024657600080fd5b506101566102553660046117f9565b610766565b610156610268366004611831565b6107ec565b34801561027957600080fd5b5061028d6102883660046118e6565b610830565b005b34801561029b57600080fd5b5061028d6102aa366004611910565b610a5f565b3480156102bb57600080fd5b506000546001600160a01b03165b6040516001600160a01b039091168152602001610160565b3480156102ed57600080fd5b506103016102fc366004611910565b610b76565b6040516101609190611929565b61028d61031c366004611910565b610be0565b34801561032d57600080fd5b506101f361033c366004611937565b610d14565b61028d61034f366004611910565b610d91565b34801561036057600080fd5b5061017e61036f366004611910565b610dfc565b34801561038057600080fd5b50610301610f04565b34801561039557600080fd5b506102c96103a4366004611910565b610f7b565b3480156103b557600080fd5b50610218610fdb565b3480156103ca57600080fd5b506101566110f0565b3480156103df57600080fd5b506102c96103ee366004611910565b6000908152600760205260409020546001600160a01b031690565b34801561041557600080fd5b5061028d610424366004611937565b611100565b60606002805461043890611963565b80601f016020809104026020016040519081016040528092919081815260200182805461046490611963565b80156104b15780601f10610486576101008083540402835291602001916104b1565b820191906000526020600020905b81548152906001019060200180831161049457829003601f168201915b5050505050905090565b60606001805461043890611963565b60008181526007602052604081205482906001600160a01b031633148061050757506000818152600660205260409020546001600160a01b031633145b61052c5760405162461bcd60e51b81526004016105239061199d565b60405180910390fd5b6105378585856111df565b506001949350505050565b6060600061054f600a5490565b905060008060005b838110156105e75733600e600061056f8460016119fa565b81526020810191909152604001600020600101546001600160a01b031614806105c2575033600e60006105a38460016119fa565b81526020810191909152604001600020600201546001600160a01b0316145b156105d5576105d26001846119fa565b92505b806105df81611a0d565b915050610557565b5060008267ffffffffffffffff8111156106035761060361181b565b60405190808252806020026020018201604052801561063c57816020015b610629611638565b8152602001906001900390816106215790505b50905060005b8481101561075d5733600e600061065a8460016119fa565b81526020810191909152604001600020600101546001600160a01b031614806106ad575033600e600061068e8460016119fa565b81526020810191909152604001600020600201546001600160a01b0316145b1561074b57600e60006106c18360016119fa565b81526020808201929092526040908101600020815160a0810183528154815260018201546001600160a01b0390811694820194909452600282015490931691830191909152600381015460608301526004015460ff1615156080820152825183908590811061073257610732611a26565b60209081029190910101526107486001846119fa565b92505b8061075581611a0d565b915050610642565b50949350505050565b60006001600160a01b0382166107d05760405162461bcd60e51b815260206004820152602960248201527f4552433732313a2061646472657373207a65726f206973206e6f7420612076616044820152683634b21037bbb732b960b91b6064820152608401610523565b506001600160a01b031660009081526005602052604090205490565b60006107fc600a80546001019055565b6000610807600a5490565b90506108133382611312565b61081d81856113b3565b610827818461142c565b90505b92915050565b6000546001600160a01b0316331461088a5760405162461bcd60e51b815260206004820152601a60248201527f4f6e6c79206f776e65722063616e2063616c6c206d6574686f640000000000006044820152606401610523565b600081116108da5760405162461bcd60e51b815260206004820152601860248201527f4d757374206d696e74206174206c656173742031204e465400000000000000006044820152606401610523565b6001600160a01b0382166109305760405162461bcd60e51b815260206004820181905260248201527f4552433732313a206d696e7420746f20746865207a65726f20616464726573736044820152606401610523565b7f00000000000000000000000000000000000000000000000000000000000000008161095b60045490565b61096591906119fa565b11156109be5760405162461bcd60e51b815260206004820152602260248201527f43616e6e6f74206d696e74206d6f7265207468616e20746f74616c20737570706044820152616c7960f01b6064820152608401610523565b80600360008282546109d091906119fa565b90915550600090505b818111610a5a576109ee600480546001019055565b60006109f960045490565b9050610a058482611312565b604080516001600160a01b0386168152602081018390527f2d8eb9b9558d4b5ef1d238622692f6156d5822009340e26ab15fac05d64c12f0910160405180910390a15080610a5281611a0d565b9150506109d9565b505050565b60008181526007602052604090205481906001600160a01b0316331480610a9c57506000818152600660205260409020546001600160a01b031633145b610ab85760405162461bcd60e51b81526004016105239061199d565b600082815260066020908152604080832080546001600160a01b03198116909155600380546000199081019091556001600160a01b0390911680855260058452828520805490920190915585845260099092529091208054610b1990611963565b159050610b37576000838152600960205260408120610b3791611666565b60408051338152602081018590527ff20884684d39657969fc7e0adb7b6d57e2c376184e1463a57c1f86e5dd7a439291015b60405180910390a1505050565b610b7e611638565b506000908152600e6020908152604091829020825160a0810184528154815260018201546001600160a01b03908116938201939093526002820154909216928201929092526003820154606082015260049091015460ff161515608082015290565b6000818152600e6020526040902060038101546002909101546001600160a01b0316348214610c495760405162461bcd60e51b8152602060048201526015602482015274496e636f727265637420707269636520706169642160581b6044820152606401610523565b6000838152600e6020526040902060048101805460ff1916600117905560020180546001600160a01b03191633179055610c87600b80546001019055565b610c923033856111df565b610c9c8330611100565b600c54600d546040516001600160a01b039092169181156108fc0291906000818181858888f19350505050158015610cd8573d6000803e3d6000fd5b506040516001600160a01b038216903480156108fc02916000818181858888f19350505050158015610d0e573d6000803e3d6000fd5b50505050565b60008281526006602052604081205483906001600160a01b03163314610d7c5760405162461bcd60e51b815260206004820152601b60248201527f4f6e6c7920686f6c6465722063616e2063616c6c206d6574686f6400000000006044820152606401610523565b610d873384866111df565b5060019392505050565b600c546001600160a01b03163314610df75760405162461bcd60e51b815260206004820152602360248201527f4f6e6c79206f776e65722063616e20757064617465206c697374696e6720707260448201526269636560e81b6064820152608401610523565b600d55565b6060610e07826115d0565b610e4e5760405162461bcd60e51b8152602060048201526018602482015277115490cdcc8c4e881a5b9d985b1a59081d1bdad95b881a5960421b6044820152606401610523565b60008281526009602052604081208054610e6790611963565b80601f0160208091040260200160405190810160405280929190818152602001828054610e9390611963565b8015610ee05780601f10610eb557610100808354040283529160200191610ee0565b820191906000526020600020905b815481529060010190602001808311610ec357829003601f168201915b5050604080516020810190915260009052509195945050505050565b949350505050565b610f0c611638565b6000610f17600a5490565b6000908152600e6020908152604091829020825160a0810184528154815260018201546001600160a01b03908116938201939093526002820154909216928201929092526003820154606082015260049091015460ff161515608082015292915050565b6000818152600660205260408120546001600160a01b03168061082a5760405162461bcd60e51b8152602060048201526018602482015277115490cdcc8c4e881a5b9d985b1a59081d1bdad95b881a5960421b6044820152606401610523565b60606000610fe76110f0565b905060008167ffffffffffffffff8111156110045761100461181b565b60405190808252806020026020018201604052801561103d57816020015b61102a611638565b8152602001906001900390816110225790505b50905060005b828110156110e957600e600061105a8360016119fa565b81526020808201929092526040908101600020815160a0810183528154815260018201546001600160a01b0390811694820194909452600282015490931691830191909152600381015460608301526004015460ff161515608082015282518390839081106110cb576110cb611a26565b602002602001018190525080806110e190611a0d565b915050611043565b5092915050565b60006110fb600a5490565b905090565b60008281526006602052604090205482906001600160a01b031633146111685760405162461bcd60e51b815260206004820152601b60248201527f4f6e6c7920686f6c6465722063616e2063616c6c206d6574686f6400000000006044820152606401610523565b600083815260076020526040902080546001600160a01b0319166001600160a01b0384161790557f8c5be1e5ebec7d5bd14f71427d1e84f3dd0314c0f7b2291e5b200ac8c7c3b9256111b984610f7b565b604080516001600160a01b03928316815291851660208301528101859052606001610b69565b6000818152600660205260409020546001600160a01b038481169116146112565760405162461bcd60e51b815260206004820152602560248201527f4552433732313a207472616e736665722066726f6d20696e636f72726563742060448201526437bbb732b960d91b6064820152608401610523565b6001600160a01b0382166112ac5760405162461bcd60e51b815260206004820152601860248201527f4552433732313a20696e76616c696420726563656976657200000000000000006044820152606401610523565b600081815260076020908152604080832080546001600160a01b03199081169091556001600160a01b0396871684526005835281842080546000190190559490951680835285832080546001019055928252600690529290922080549091169091179055565b6001600160a01b0382166113725760405162461bcd60e51b815260206004820152602160248201527f4552433732313a206d696e7420746f20746865207a65726f20616464726573736044820152602160f81b6064820152608401610523565b6001600160a01b03909116600081815260056020908152604080832080546001019055938252600690529190912080546001600160a01b0319169091179055565b6113bc826115d0565b6114145760405162461bcd60e51b8152602060048201526024808201527f4552433732313a2055524920736574206f66206e6f6e6578697374656e74207460448201526337b5b2b760e11b6064820152608401610523565b6000828152600960205260409020610a5a8282611a8a565b600d543410156114705760405162461bcd60e51b815260206004820152600f60248201526e4e6f7420656e6f756768206665652160881b6044820152606401610523565b600081116114c05760405162461bcd60e51b815260206004820152601e60248201527f5072696365206861766520746f206265206c6172676572207468616e203000006044820152606401610523565b6114ca33836115ed565b6114e65760405162461bcd60e51b81526004016105239061199d565b6040805160a081018252838152306020808301828152338486018181526060860188815260016080880181815260008c8152600e9097529890952096518755925193860180546001600160a01b039586166001600160a01b03199182161790915590516002870180549190951691161790925551600384015592516004909201805492151560ff19909316929092179091556115839190846111df565b604080513081523360208201529081018290526001606082015282907f9339409317fd01fabff48b703019016f49159bacc801ae872d2ca637d226e4c09060800160405180910390a25050565b6000806115dc83610f7b565b6001600160a01b0316141592915050565b6000806115f983610f7b565b9050806001600160a01b0316846001600160a01b03161480610efc575050506000908152600760205260409020546001600160a01b0390811691161490565b6040805160a08101825260008082526020820181905291810182905260608101829052608081019190915290565b50805461167290611963565b6000825580601f10611682575050565b601f0160209004906000526020600020908101906116a091906116a3565b50565b5b808211156116b857600081556001016116a4565b5090565b60005b838110156116d75781810151838201526020016116bf565b50506000910152565b60208152600082518060208401526116ff8160408501602087016116bc565b601f01601f19169190910160400192915050565b80356001600160a01b038116811461172a57600080fd5b919050565b60008060006060848603121561174457600080fd5b61174d84611713565b925061175b60208501611713565b9150604084013590509250925092565b805182526020808201516001600160a01b039081169184019190915260408083015190911690830152606080820151908301526080908101511515910152565b6020808252825182820181905260009190848201906040850190845b818110156117ed576117da83855161176b565b9284019260a092909201916001016117c7565b50909695505050505050565b60006020828403121561180b57600080fd5b61181482611713565b9392505050565b634e487b7160e01b600052604160045260246000fd5b6000806040838503121561184457600080fd5b823567ffffffffffffffff8082111561185c57600080fd5b818501915085601f83011261187057600080fd5b8135818111156118825761188261181b565b604051601f8201601f19908116603f011681019083821181831017156118aa576118aa61181b565b816040528281528860208487010111156118c357600080fd5b826020860160208301376000602093820184015298969091013596505050505050565b600080604083850312156118f957600080fd5b61190283611713565b946020939093013593505050565b60006020828403121561192257600080fd5b5035919050565b60a0810161082a828461176b565b6000806040838503121561194a57600080fd5b8235915061195a60208401611713565b90509250929050565b600181811c9082168061197757607f821691505b60208210810361199757634e487b7160e01b600052602260045260246000fd5b50919050565b60208082526027908201527f4f6e6c7920686f6c646572206f7220617070726f7665642063616e2063616c6c604082015266081b595d1a1bd960ca1b606082015260800190565b634e487b7160e01b600052601160045260246000fd5b8082018082111561082a5761082a6119e4565b600060018201611a1f57611a1f6119e4565b5060010190565b634e487b7160e01b600052603260045260246000fd5b601f821115610a5a57600081815260208120601f850160051c81016020861015611a635750805b601f850160051c820191505b81811015611a8257828155600101611a6f565b505050505050565b815167ffffffffffffffff811115611aa457611aa461181b565b611ab881611ab28454611963565b84611a3c565b602080601f831160018114611aed5760008415611ad55750858301515b600019600386901b1c1916600185901b178555611a82565b600085815260208120601f198616915b82811015611b1c57888601518255948401946001909101908401611afd565b5085821015611b3a5787850151600019600388901b60f8161c191681555b5050505050600190811b0190555056fea26469706673582212208bfa8fc3d75fc086bbdf9f1081649ee0f088a6fac21d200e8294508536b3052c64736f6c63430008100033",
    "linkReferences": {}
  },
  "methodIdentifiers": {
    "approve(uint256,address)": "febe4909",
    "balanceOf(address)": "70a08231",
    "burnToken(uint256)": "7b47ec1a",
    "createToken(string,uint256)": "72b3b620",
    "executeSale(uint256)": "9b1225c4",
    "getAllNFTs()": "e0391b09",
    "getApproval(uint256)": "f658518a",
    "getCurrentToken()": "ef2d1746",
    "getLatestIdToListedToken()": "d1a88ae5",
    "getListPrice()": "68f1945f",
    "getListedTokenForId(uint256)": "8e264590",
    "getMyNFTs()": "629cb2e4",
    "getName()": "17d7de7c",
    "getOwner()": "893d20e8",
    "getSymbol()": "15070401",
    "holderOf(uint256)": "dbacc237",
    "mintToken(address,uint256)": "79c65068",
    "supply()": "047fc9aa",
    "tokenURI(uint256)": "c87b56dd",
    "totalSupply()": "18160ddd",
    "transfer(uint256,address)": "b7760c8f",
    "transferFrom(address,address,uint256)": "23b872dd",
    "updateListPrice(uint256)": "c322579c"
  },
  "id": 25
}